:400000000080002011000000490600004906000008B5044B1A6803F53F5302331A6000F033FB00BFFA46004010B5054C237833B9044B13B10448AFF300800123237010BDAB
:400040003881FF1F00000000301A0000084B10B51BB108490848AFF300800848036803B910BD074B002BFBD0BDE81040184700BF000000003C81FF1F301A0000C880FF1F8E
:400080000000000008B562B6084800F071FB084800F04AFC00F0D8FB00F0AAFC00F0C6FE00F04EFE034800F005FCFEE7FD02000021030000341A000008B5084800F0FAFB6C
:4000C000002000F05FFE002000F062FE002000F0E3FD002000F0E6FD08BD00BF4C1A000008B580EAE073A3EBE073C3EB03230B4AA2FB0323C3F30713002807DBD843C0B2A8
:4001000000F040FEFF2000F043FE08BDD843C0B200F03EFEFF2000F035FE08BD1F85EB5108B580EAE073A3EBE073C3EB03230B4AA2FB0323C3F30713002807DBD843C0B22E
:4001400000F0AAFDFF2000F0ADFD08BDD843C0B200F0A8FDFF2000F09FFD08BD1F85EB5110B58AB00446564A07AB07CA03C31A70544A04AB07CA03C31A80534A01AB07CAA4
:4001800003C31A80A4F13000442800F29780DFE800F074234A9595959595959595959595959595959595959595959595959595959595959595959595959595959595959506
:4001C0009595957A8195959595959595959595959595959595888F003C4B93F90030312B1DDC3B4800F066FB384A137805335BB21370322B02DD3222344B1A70334C94F9F8
:400200000000FFF76DFF94F90000FFF789FF94F90030322B52D12F4800F04CFB4EE02E4800F048FB4AE0294B93F9003013F1310F1FDB2A4800F03EFB244A1378053B5BB216
:40024000137013F1320F02DACE22204B1A701F4C94F90000FFF744FF94F90000FFF760FF94F9003013F1320F28D11D4800F022FB24E01C4800F01EFB20E00022134B1A70FA
:40028000FFF71AFF1AE0184800F014FB07A800F057FC13E0154800F00DFB04A800F050FC0CE0134800F006FB01A800F049FC05E0104800F0FFFA104800F042FC0AB010BD6B
:4002C000C01B0000CC1B0000D81B00005481FF1F541A0000681A0000841A0000A41A0000B81A0000D41A0000F41A0000281B00005C1B00008C1B0000B41B000038B500F02F
:40030000B7FA044609E000F0ADFA054600F0BCFA2846FFF725FF013CE4B2002CF3D138BD10B582B03FE000F071FB224B5B78302B04D8204A591C5170134418710A2805D0A1
:400340000D2803D01B4B5B78302B2CD9194C6378234400221A71184800F0ACFA0434204600F0A8FA154800F0A5FA6B4601AA1449204600F0B9FD02280CD19DF900409DF93E
:400380000400FFF7ADFE2046FFF7CAFE0D4800F091FA05E00C4800F08DFA0C4800F08AFA0022044B5A7000F063FB0028BBD102B010BD00BF5481FF1FE41B0000301C000073
:4003C000F81B0000001C00005881FF1F1C1C0000FEE700BFF0B40022174611E050F82760F3B226F0FF0608E001EB420511F812406D78A5550132013BDBB2002BF4D10137DF
:40040000192FEBD9F0BC7047064B1B78DBB203F00701054A11701B09013213704422034B1A707047CF0100496E5800407658004008B50A46002100F04EFD08BD38B53322A5
:400440002B4B1A8018232B4A13704FF49C71023211800232137040F23F6227490A8002310B7002310A80254A13700222244B1A7008224FF040231A70032103F500731970B8
:40048000204B1B78DBB220490B70204B1A8041F25122023B1A80002419250CE01C4B1B7803F0010343EA440404F003044FF4F07000F0CAFC013D0DB1032CEFD115B9032067
:4004C000FFF786FF134B4FF480721A8007221A70002211490A704820023108701A700222033B1A700D4A137843F00F03137038BD8040004082400040884000408E4000406B
:400500000043004008010049A146004022420040254200400440004006400040A243004008B500F0CDFC08BD38B572B6354A137843F00403137000240CE0334D6300191909
:400540004A0011462A44084691882858FFF770FF0134E4B2072CF0D900240BE02A49A3001819420088180622416B006BFFF7D8FF0134E4B2002CF1D024494FF09040FFF7EB
:4005800029FF234A137843F0020313701032137843F0020313701F4C237843F040032370A2F58632513A137843F0100313700A2219491A48FFF7B4FF0A2219491948FFF71D
:4005C000AFFF082218491948FFF7AAFF082218491848FFF7A5FF184A137843F008031370164D61232B70FFF729FF81232B700122134B1A70FFF708FF0E2221461148FFF7C2
:400600008FFF38BDE8460040341C00006800004803500140A04300408C0700480051004098070048C0510040A407004812510040AC070048325100402243004000480040ED
:4006400004000840B043004008B500F00DFC03680C2B00D1FEE7FEE708B5094B1A681044084BC31A802B02DC054B186005E000F0FBFB0C2303604FF0FF32104608BD00BFF9
:40068000CC80FF1F7082FF1F08B5104E104D16E029686B68AC68002204E051F8040B43F8040B0432A242F8D1E868002203E0002143F8041B04328242F9D11035013E002E09
:4006C000E6D100F0D7FBFFF7DDFCFEE701000000201E000008B5104A104B1A60104A136843F40073136000230AE0032B03D80D4A52F8231000E00C490C4A42F8231001339A
:400700002F2BF2D90A4B1A780A4B1A70074A0A4B1A60FFF709FF08BD0004FA050CED00E014ED00E000000000490600000080FF1FBC760040C080FF1F08ED00E0014B1B68CD
:400740009864704708ED00E04001C0B2014B1870704700BF02E400E00422014B1A60704700E100E00422014B1A60704780E100E010B50446FFF7F6FF2046FFF7DFFF07208B
:40078000FFF7E2FFFFF7E8FF10BD00BF01BE704770B504460E46074B1D681F2802D90020FFF7F4FF04F01F04103455F8240045F8246070BD08ED00E038B504460D46072975
:4007C00002D90020FFF7E2FF1F2C02D90020FFF7DDFF04F01F0000F1604000F564406D01EDB2057038BD00BF7222084B1A702022023B1A700622A3F5AF731A70472210330A
:400800001A7000224F331A70704700BF8765004010B500F021FB04460A4A137843F020031370023A137843F010031370FF3A137843F01003137000F04FF8204600F010FBD6
:4008400010BD00BF9765004008B5054B1B7823B9FFF7CAFF0122024B1A70FFF7D9FF08BD8A81FF1F014B1878704700BF44650040044B1B7813F0200F01D0012070470020A7
:40088000704700BF65650040024B1B780BB1024B187070478A81FF1F46640040034B1B7813F0040FFAD1024B18707047666400404664004038B5074B1B782BB938BDFFF79A
:4008C000EDFF0134A4B201E005460024285D0028F5D138BD8A81FF1F054A137843F0010313701032137843F001031370704700BFA2430040014B1B68D864704708ED00E053
:400900004001C0B2014B1870704700BF03E400E00822014B1A60704700E100E00822014B1A60704780E100E010B50446FFF7F6FF2046FFF7DFFF0720FFF7E2FFFFF7E8FF94
:4009400010BD00BF08B511490020FFF721FF07210020FFF731FF00220D4B1A7072220D4B1A70202204331A700B490120FFF710FF07210120FFF720FF0622084B1A7047226D
:4009800010331A70022250331A7008BD650B00008C81FF1F83640040FD0B00002564004010B500F059FA04460D4A137843F0200313700432137843F010031370094A0123D3
:4009C000136009490B7843F010030B70022307490B60136000F03EF9204600F041FA10BD9364004000E100E09564004080E200E008B5054B5B7823B9FFF7A4FF0122024BDE
:400A00005A70FFF7CDFF08BD8C81FF1F0122134B1A60134A9378DBB2D178C9B2127912F0FF0F01D18B4211D00E4AD05CC0B20133DBB2632B00D90023094A9370137913F045
:400A4000FF0F06D00022064B1A7102E0064B1878C0B20122054B1A60704700BF80E100E08C81FF1FA081FF1F4464004000E100E00122144B1A60144B9A78D2B2DB78DBB2D7
:400A80009A4206D1104B1B7913F0FF0F15D0642014E00D4B9A78D2B2DB78DBB29A4205D2094AD3789078181AC0B207E0064AD3789078181A6430C0B200E000200122034B28
:400AC0001A60704780E100E08C81FF1F00E100E0164BD9799B79DBB2994205D25A1E914214BF0022012204E0CA1A632A14BF00220122002AECD1994207D10D4B1B7813F03A
:400B0000040F02D10B4B18707047632900D90021094B58540131054BD971054B1B7813F0020F02D00222054B1A6070478C81FF1F65640040426400400482FF1F00E200E0FA
:400B400038B5074B5B782BB938BDFFF7C1FF0134A4B201E005460024285D0028F5D138BD8C81FF1F1D4B1B78DBB213F01E0F05D01B4803F01E0201780A43027003F0200315
:400B800003F0FF0233B3174B1978C9B2164B1B78DBB21648C154164B1B7813F0FF0F02D00121144B197010490B780133DBB20B700B78DBB2632B02D900210B4B19700A4B32
:400BC0001978C9B20C4B1B78DBB2994202D10121074B1970002AC5D1704700BF676400408C81FF1F446400408F81FF1FA081FF1F9081FF1F9181FF1F8E81FF1F13E0104B2C
:400C00001B78DBB2632B02D900220D4B1A700C4A1378DBB20B49CB5CDBB20B490B7013780133DBB21370064B1B78DBB2074A1278934204D0064B1B7813F0040FDFD07047BE
:400C40009281FF1F0482FF1F426400409381FF1F65640040054A137843F0020313701032137843F002031370704700BFA2430040024A137843F080031370704774650040E6
:400C8000014B1870704700BF05650040014B1870704700BF45650040014B1870704700BF25650040014B1870704700BF35650040014B1870704700BF84650040014B187885
:400CC000704700BF64650040014B1878704700BF5565004008B501E0FFF7F6FFFFF7EEFF10F0100FF8D108BD08B5134A137803F0C00343F0090313702132137843F00103DE
:400D00001370FF20FFF7BCFFFF20FFF7BFFF7F20FFF7C2FF3F20FFF7C5FF0020FFF7C8FF00F09AF8054A137843F01003137000F097F8FFF7CFFF08BD7465004094650040C2
:400D400008B5054B1B7823B9FFF7CEFF0122024B1A70FFF78DFF08BD9581FF1F024A137843F080031370704774640040014B1870704700BF06650040014B1870704700BFA1
:400D800046650040014B1870704700BF26650040014B1870704700BF36650040014B1870704700BF86650040014B1878704700BF66650040014B1878704700BF56650040EF
:400DC00008B501E0FFF7F6FFFFF7EEFF10F0100FF8D108BD10B5134A137803F0C00343F009031370104C237843F001032370FF20FFF7BCFFFF20FFF7BFFF7F20FFF7C2FFFB
:400E00003F20FFF7C5FF0020FFF7C8FF00F024F8237843F01003237000F022F8FFF7D0FF10BD00BF746400409665004008B5054B1B7823B9FFF7CEFF0122024B1A70FFF75F
:400E40008DFF08BD9681FF1F0230800803D000BF01380046FCD17047EFF3108072B6704780F31088704700BF014B1868704700BF3081FF1F0E4B70B51E460E4C0025E41A5B
:400E8000A410A54204D056F8253098470135F8E700F0B4FF084B094C1E46E41AA4100025A54204D056F8253098470135F8E770BD081E0000081E0000081E0000101E000087
:400EC00010B5431E0A44914204D011F8014B03F8014FF8E710BD03460244934202D003F8011BFAE7704700000EB430B59CB01FAC4FF4017254F8045BADF814200290069086
:400F000000F01EF80B4B03900B9300230F9314934FF6FF7307900848ADF816302A46234602A90068019400F06FF81CB0BDE8304003B070473D0F00003081FF1F002070471A
:400F4000034613F8012B002AFBD1181A013870474B1C70B50E46144602D14FF0FF3070BD9389CDB223F020039381536B526883B1A36B9A4207DA23685A1E226003F8016CE8
:400F8000636801331FE0214600F01EFC0028F2D0E3E72169236851B1994208D213F8011C8D4204D1013B0132236062600CE0E36304F1440363630323A3632346226403F878
:400FC000466F236001236360284670BD10B50C46496B69B104F14403994201D000F03CFC236C00206063636013B1E36B236010BD23694FF0FF30236000236360A38943F0E9
:401000002003A38110BD00002DE9F04FDFF89C9207460D46CA46ADF5257D01930023469347939E4B0DF10C08A2939D4BDFF874B2CDF82081A3931478002C00F02781D9F812
:40104000003023445B7803F0080303F0FF01F3B16B68002B10DD2B68DAF800001978014449780C0710D5479901330131479169682B6001396960EBE7A39B29463846009286
:401080009847009A0028E6D0561C3246D3E7252C02F1010652D14391459153782A2B02BF1023961C43930A2231783446A1F13003092B06F1010605D8459B02FB0313303B00
:4010C0004593F1E70322774800F0B7FB40B134460123CBEB000003FA00F0439B03434393661C2478672C16D8652C7FD2472C07D8452C7BD2002C00F0CB80252C1ED077E000
:401100005B2C51D002D8582C3ED071E0632C57D0642C3FD06CE0702C32D007D86E2C55D03AD8692C64D1002344933BE0752C31D0782C29D0732C5BD102233FE06B68002B30
:401140000DDD2B681A78944240F0A08001336A682B60479B013A01336A60479395E7A39B2946384698470028EBD04698002800F08F80AB8913F0400F18BF4FF0FF3089E012
:40118000439B43F020034393439B43F400734393102302E00A2300E008236E2C449301DD04230BE0032309E03146404600F0D8F90646439B43F040034393012349931BE0DB
:4011C000439B43F0400343930023F7E7439AD0063FF55BAF12F0010F019A479B02F104010191126814BF138013604EE70523E5E7032349930A2344936B68002B03DD439B7C
:40120000590611D518E0A39B2946384698470028F5D0AAE7479A013247926A68013A002A6A6013DD01332B602B68DAF800101A780A4452781207EDD4499B022B0DDC01ABAD
:401240002A4643A9384600F033F819E0A39B2946384698470028E7D087E7042B06DC01AB2A4643A9384600F089F809E00E4B002B3FF40BAF01AB2A4643A93846AFF300801F
:40128000012803D002287FF400AF6EE7469801E04FF0FF300DF5257DBDE8F08F510F0000CD0F0000701C0000000000003481FF1F2DE9F84315468A6880460C4632B98A696D
:4012C000002A0CBF01224FF0FF328A602268DFF8A890D10658BF1A684FF000065EBF111D19601768A069F8B923680136DA065EBF2B681B783B702A686B6802F101022A60BC
:40130000A26803F1FF3302F1FF326B6058BF0137A260E2B1002BE5DCD4F880312946404698470028DED012E0012806D12B681A7863699B5C002BD7D119E0022807D12B685C
:40134000D9F800201B7813445B781B07CCD5236813F0100305D1E2680132E260A26902B13B70236900201E442661BDE8F883002EEDD1BDE8F88300BF3481FF1F2DE9F04FB5
:401380000C469A46724B87B08346164693E8070003ABA76883E807006E4BA1696E4A04F11C09032918BF1A467B1EB3F5AE7F84BF40F25D13A360236888BF6FF4AE7543F454
:4013C000506323604B4600928CBF7F1900274FF000083168019303AB53F828000222097800F02BFA019B002833D0B8F1010F0BD162682AB908226260226842F40072226092
:40140000226822F4A0620CE0B8F1020F0AD1226802F4C061B1F5007F1BD11021616042F480722260A268511EA16092B132685D1C511C316012781A707368013B002B736044
:4014400006DCD4F88031314658469847002841D12B4608F10108B8F1030FBAD162680AB90A22626062683D496069891A019300F077F8019B4FF000081D46A36863B33168FC
:4014800060690A78805C38B3302A226808D1100506D508F1010857B10133013FA36006E022F4106222600B78013505F8013C7368013B002B736003DD33680133336005E0CD
:4014C000D4F8803131465846984728B9A368013BA360D2E74FF000082368D9050CD54D4508D915F8011C6F1ED4F87C313246584698473D464D4527D0226812F010021BD1D8
:401500002A70636849465846009EB0472268DAF8003012F0200F07D1D20705D51A1DCAF800201B68188004E01A1DCAF800201B681860E3680133E3602369C9EB050545447B
:401540001D442561002000E0012007B0BDE8F08F741C0000CD160000C1150000901C000070B50B78441E5E2B13BF4A1C8A1C4B78002108BF012100F1FF0504F8011FAC4256
:40158000FBD10BB9501E70BD81F001041146C4540D784A1C2D2D06D05D2D0FD00DB12B46F4E7084670BD4E785D2EF8D0B342F6DC023101339E42C454FBDCE9E7104670BDA9
:4015C0002DE9F0470F4680463F48D0F800903D4615F8014B09EB0400407800F0080000F0FF0608B12F46F2E72D2C03D1BD1C7C78012603E02B2C04BF7C78BD1C13B1102B3A
:401600000AD15BE0302C57D1287800F0DF0058284DD16C7810230235002E14BF4FF0004C6FF0004CBCFBF3FA0027384603FB1ACC09EB040E9EF801E01EF0040F01D0303C76
:401640000BE01EF0030E1BD0BEF1010F0CBF4FF0370E4FF0570ECEEB0404A34210DDB7F1FF3F0AD0504506D801D1644503DC03FB0040012701E04FF0FF3715F8014BD7E7D0
:401680007B1C0CD1002E4FF0220314BF4FF000406FF00040C8F800302AB9BDE8F08706B1404272B107B1691E1160BDE8F0873024002BB1D10823AFE70A23ADE7302CA3D0CA
:4016C000AAE7BDE8F08700BF3481FF1F2DE9F0470E4680463B48D0F80090354615F8014B09EB0400407800F0080000F0FF0708B12E46F2E72D2C03D1B51C7478012703E0FC
:401700002B2C04BF7478B51C13B1102B0AD153E0302C4FD1287800F0DF00582845D16C78102302354FF0FF3CBCFBF3FC03FB0CFA00266FEA0A0A304609EB040E9EF801E04C
:401740001EF0040F01D0303C0BE01EF0030E1AD0BEF1010F0CBF4FF0370E4FF0570ECEEB0404A3420FDD002E08DB604506D801D1544503DC03FB0040012601E04FF0FF363B
:4017800015F8014BD8E7002E07DA2223C8F800304FF0FF302AB9BDE8F08707B1404272B106B1691E1160BDE8F0873024002BB9D10823B7E70A23B5E7302CABD0B2E7BDE888
:4017C000F08700BF3481FF1F2DE9F0410C46496B04F1440399421AD14FF4806100F088F818B94FF0FF30BDE8F0814FF48063A36394F84630606380F8FF3394F8453000F21A
:40180000FD30437094F844300370206012E0A66B77003A4600F0CAF805460028E1D000EB0608014632464046FFF74AFBC4F800806563A7630020BDE8F08110B5C9B20244C2
:401840009042034605D01C7801308C42F8D1184610BD002010BD000038B50546002944D051F8043C0C1F002BB8BFE41800F0D4F81E4A1368114613B96360146030E0A3424F
:401880000DD92268A018834201BF18685B681218226063600C6023E0A24203D813465A68002AF9D118681918A1420BD12168014458188242196013D11068526801441960CD
:4018C0005A600DE002D90C232B6009E021686018824201BF106852680918216062605C602846BDE8384000F098B838BD9C81FF1F70B5CD1C25F0030508350C2D38BF0C2528
:40190000002D064601DBA94202D90C23336046E000F082F8234B1C681A462146A1B10B685B1B0ED40B2B03D90B60CC18CD501EE08C420BBF63684B681360636018BF0C4673
:4019400015E00C464968E9E7174C23681BB9304600F052F820602946304600F04DF8431C18D0C41C24F00304A0420DD12560304600F053F804F10B00231D20F00700C31A27
:401980000ED05A42E25070BD211A304600F034F80130EBD10C233360304600F03EF8002070BD00BF9C81FF1F9881FF1FF8B5074615460E4621B91146BDE8F840FFF798BFB4
:4019C0001AB9FFF749FF2846F8BD00F027F885420ED929463846FFF78BFF044650B131462A46FFF76DFA31463846FFF735FF01E03046F8BD2046F8BD38B5064C0023054607
:401A000008462360FEF728FE431C02D1236803B12B6038BD6882FF1F7047704751F8040C0028BEBF091851F8043CC01804387047000000005374617274696E672070726F23
:401A40006772616D2E2E2E0D0A00000053746F70200D0A00496E6372656173652073706565640D0A000000004D617820666F727761726420737065656420726561636865DB
:401A8000640D0A00416C7265616479206174206D617820666F72776172642073706565640D0A000044656372656173652073706565640D0A000000004D61782072657665D5
:401AC00072736520737065656420726561636865640D0A00416C7265616479206174206D617820726576657273652073706565640D0A000053656E64696E67204765744D92
:401B000041434164647265737320636F6D6D616E6420746F20426C7565746F6F7468206D6F64756C650D0A0053656E64696E6720476574424155445261746520636F6D6D4A
:401B4000616E6420746F20426C7565746F6F7468206D6F64756C650D0A00000053656E64696E672047657453746174757320636F6D6D616E6420746F20426C7565746F6F14
:401B80007468206D6F64756C650D0A0054657374696E6720666F7220726573706F6E73652066726F6D204254206D6F64756C650D0A00000041542B5645520D0A00000000AD
:401BC00041542B4D41430D0A0000000041542B424155440D0A00000041542B535441540D0A0000000D0A5B425420526573706F6E73655D200000000025642C256400000005
:401C0000536B7272744D6F6E65792C206C6F6F7020656E7465726564000000000D0A205061727365206572726F72203A282828200D0A000020510040100040510040300032
:401C4000F0510040100000000140001000140140000800400140000A004C01400002005001402000605200408407004806004300686C4C00921C0000951C0000981C000019
:401C8000412D46612D66383930313233343536375D002B2D0030300078580000202020202020202020282828282820202020202020202020202020202020202088101010AA
:401CC00010101010101010101010101004040404040404040404101010101010104141414141410101010101010101010101010101010101010101101010101010424242CC
:401D00004242420202020202020202020202020202020202020202101010102000000000000000000000000000000000000000000000000000000000000000000000000055
:401D40000000000000000000000000000000000000000000000000000000000000000000000000000000000000000000000000000000000000000000000000000000000063
:401D80000000000000000000000000000000000000000000000000000000000000000000000000000000000000000000000000000000000000000000000000000000000023
:401DC000000000000000000000000000000000000000000000000000000000000000000000000000000000000000000000000000000000000000000000000000F8B500BF77
:401E0000F8BC08BC9E4670474D000000D5060000F8B500BFF8BC08BC9E46704729000000301E0000C880FF1F7000000038010000000000007082FF1F000000009C1D000099
:401E4000BC1D0000DC1D0000000000000000000000000000000000006E1C000000000000000000000000000000000000000000000000000000000000000000000000000006
:401E8000000000000000000000000000000000000000000000000000D080FF1F9B1C00000000000000000000000000000000000000000000000000000000000000000000FD
:401EC00000000000000000000000000000000000000000000000000000000000000000000000000000000000000000000000000000000000000000000000000000000000E2
:401F000000000000000000000000000000000000000000000000000000000000000000000000000000000000000000000000000000000000000000000000000000000000A1
:401F40000000000000000000000000000000000000000000000000000000000000000000000000000000000000000000000000000000000000000000000000000000000061
:401F80000000000000000000000000000000000000000000000000000000000000000000000000000000000000000000000000000000000000000000000000000000000021
:020000040003F7
:0200000480007A
:4000000004520040046400400465004057020140380301406D0401405305014067060140480701400109014065140140481501405216014042170140031B01400340014071
:4000400008410140084201400643014001470140034801400A490140054C01400C4D0140055001400151014004010810091018188372850F860F8738840F8538860F8772C2
:4000800003250503072409230B0C100119231B042710290A2B242F0831203401350F37103B203E103F014024410346B047EC483849FF4AFF4BFF4EF04F44500C580459043A
:4000C0005A045C105D015F0166C06A406B02818084738518860C880389088C1F8D108E60907F93E3941C95C096639802993C9BC29C019F04A008A144A404A5FFA80CA9E716
:40010000AB18AD1CAE23AFE1B02CB1C0B240B31FB40FB610B738B808BA22BB08BE40D602D710D804D904DB04DC11DD10DF010024030A084009280A800C02108812021308D2
:40014000180419601A101B021E082002210822012440251026802704284029202A082B022F25302032823308341038A839013D2A3F024410451148024A0154025504562098
:40018000594069486A2070DC73088902C007C21FC40FCA7FCC2FCEEFD0E0D608E2800201059F090A0B510D80150116021726199F260229142A012B49318033073402351875
:4001C000360137603A023E503F40406441024205440146E0470C481849FF4AFF4BFF4C624DA04EF04F41500C5280580459045A045B045C115D315F016640670269106A3037
:400200006B106D106E106F12821C8320882189148A16941C95709623970C99809B039C409D109E03A421A56CA60EA711A95CAB02AD09AE08AF10B060B20FB360B41AB51F09
:40024000B780B802B908BA28BF44C002C740C9FFCA07CBFFCC40CD20CEF0CF05D008D401D604D804D904DA04DB04DC11DD11DF01E040E1A8E240E3200002050107040A107D
:400280000D080F02100812101418152016011740180419401A801D091F1520212131220625402610271028082C102F1532143610374439583E203F02400141014208442001
:4002C00045044710480149204F025008521056015C605E0A65027340856190409158923295019680970A99209A209B049C109D029E08A001A104A205A410A520A602A701A3
:40030000A820A908AC40AD10AF20C058C2A4C4A6CA74CC76CEAED02DD20CD6F0D8800240041C0602070308090A100C100E0C0F041010140C1501161118801C201E03224033
:40034000241430203240330134803502361F37043E154056410346BC470E481C49FF4AFF4BFF4EF04F44500C5401580459045A045B045C305F0166C06A406B02840A865488
:4003800087138A088C538E0C945395319604970E996C9B039F08A003A244A680A820AA45AB4CAD31AF46B080B130B230B34AB440B50FB60FB808B902BA80BB28BE10BF019F
:4003C000C004C540C9FFCA07CBFFCC40CD20CEF0CF05D008D418D604D804D904DA04DB04DD10DF01E040E1A8E240E320000801800308042005800680071009080D880E8089
:400400000F08109816101702182019A01B091C801D801E041F042048210822102540272A29802B08310832903310370838083D083F40404045084AC04C044D80500C548031
:40044000561457045A025C805E045F11600461406380670C80808120834084409004920293409940AA48C0F7C2F4C43ECA0CCC4ECE52D041D230D6F1D80DE002E00204025C
:40048000061507080B020F04130118211A4A1B081C441E2A230224E7270428E72C80308031013207330434183502366037083E103F54406441034201440246E0470C48188B
:4004C00049FF4AFF4BFF4C624DA04EF04F41500C52805407580459045A045B045C205D205F016640670269106A306B106D106E106F128302870188049C019F03AA0CAE0308
:40050000B004B201B301B408B602B702C050C106C5D0C620C751C83AC9FFCAFFCBFFCDA0CF04D018D418D604D804D904DA04DB04DC22DD02DF01E040E2C0E440E540E6C0DA
:40054000E8C0EAC0ECC0EEC00108051008100A020B020E01100211141609180419081A021B021D101E51220423C5254027202BA031013210378038083B603D023E08408435
:4005800041044202430249204D024F605004531055015609573059025A585F02678571018212876088108940911C9220970299209B029C909D08A002A380A702A948B580B8
:4005C000C044C283C4C7CA03CC15CECED00FD234D68FD8B0E002EA1008010E072A082E0C30013208340236044010410445D046024715483649FF4AFF4BFF4DA04F0450187B
:40060000540758045A045B045C035D335F01604062C06440654066C068C06AC06CC06EC0818084738518860C887F89088DC08E23901C913C926393C2941F951C966097E1C8
:40064000980499449C029D10A008A3E3A401A5FFA80CA9E7AB18AC03AF04B010B11FB22CB40FB538B640B7C0B880BA28BB0ABE01D602D713D804D904DB04DF010024020449
:400680000302051006020A140B4210901140131016081740180419251A101B801C401D982020210422112342288029202A042B01309031043201382839403B024540468023
:4006C00047404F015504568A59015C405F2568026914709472047310810893049B209C109E80A140A301A504AC80AF10B604B701C0C7C20FC4CFCA0FCC0FCE0FD090D6F1B9
:40070000E002E220E42033123618CCF0038051108A109F10A618A702C010D420851095209F10A608A702AF80E240EC10820883109F10A608A702E22087208204A702E28030
:4007400056045F0287029A049B02A702B702D440D680E2105A0466109B20D602D80110107720860488108A1096049B209E10C408DE04E204E404000B08020A0B100D1A0D9C
:4007800000FF00008080000040000000020001020200020000000000800040808000800000000000003B3B00300000000018180018000000000000000000000000000000C3
:4007C00000000000000000000000000000000000000000000000000000000000000000000000000000000000000000000000000000000000000000000000000000000000F9
:4008000000000000000000000000000000000000000000000000000000000000000000000000000000000000000000000000000000000000000000000000000000000000B8
:400840000000000000000000000000000000000000000000000000000000000000000000000000000000000000000000000000000000000000000000000000000000000078
:400880000000000000000000000000000000000000000000000000000000000000000000000000000000000000000000000000000000000000000000000000000000000038
:0200000490006A
:0400000000004005B7
:0200000490105A
:04000000BC90ACAF55
:0200000490303A
:020000002C24AE
:0200000490402A
:4000000000000000000000000000000000000000000000000000000000000000000000000000000000000000000000000000000000000000000000000000000000000000C0
:400040000000000000000000000000000000000000000000000000000000000000000000000000000000000000000000000000000000000000000000000000000000000080
:400080000000000000000000000000000000000000000000000000000000000000000000000000000000000000000000000000000000000000000000000000000000000040
:4000C0000000000000000000000000000000000000000000000000000000000000000000000000000000000000000000000000000000000000000000000000000000000000
:0200000490501A
:0C00000000012E16106900012E233C8D1B
:00000001FF