:4000000000800020110000001D0700001D07000008B5044B1A6803F53F5302331A6000F085FB00BFFA46004010B5054C237833B9044B13B10448AFF300800123237010BDAF
:400040003081FF1F00000000900F0000084B10B51BB108490848AFF300800848036803B910BD074B002BFBD0BDE81040184700BF000000003481FF1F900F0000C880FF1FF4
:400080000000000008B562B6084800F0C3FB084800F09CFC00F02AFC00F0FCFC00F018FF00F0A0FE034800F057FCFEE781040000B9000000940F000038B521E000F0F8FCDC
:4000C000124B1B78302B04D8104A591C1170134418710A2805D00D2803D00C4B1B781D2B0ED90A4C2378234400251D71084800F033FC201D00F030FC064800F02DFC2570B2
:4001000000F008FD0028D9D138BD00BF4C81FF1FAC0F00003810000008B5084800F01CFC002000F081FE002000F084FE002000F005FE002000F008FE08BD00BFC00F0000A4
:4001400008B580EAE073A3EBE073C3EB03230B4AA2FB0323C3F30713002807DBD843C0B200F062FEFF2000F065FE08BDD843C0B200F060FEFF2000F057FE08BD1F85EB5166
:4001800008B580EAE073A3EBE073C3EB03230B4AA2FB0323C3F30713002807DBD843C0B200F0CCFDFF2000F0CFFD08BDD843C0B200F0CAFDFF2000F0C1FD08BD1F85EB5182
:4001C00010B58AB00446994A07AB07CA03C31A70974A04AB07CA03C31A80964A01AB07CA03C31A80A4F13000442800F21D81DFE810F0F700450075009C00CE001B011B01A7
:400200001B011B011B011B011B011B011B011B011B011B011B011B011B011B011B011B011B011B011B011B011B011B011B011B011B011B011B011B011B011B011B011B013E
:400240001B011B011B011B011B011B011B011B011B011B01000107011B011B011B011B011B011B011B011B011B011B011B011B011B011B011B011B010E0115016E4B93F933
:400280003630312B26DC6D4800F066FB6A4A92F8363005335BB282F8363092F83710053182F83710322B03DD3222634B83F83620614C94F93600FFF743FF94F93700FFF771
:4002C0005FFF94F93630322B40F0AE805C4800F043FBA9E05B4800F03FFBA5E0564B93F93730312B1DDC584800F036FB524A92F8373005335BB282F83730322B03DD322257
:400300004D4B83F837204C4C94F93700FFF738FF94F93730322B40F087804C4800F01CFB82E04B4800F018FB7EE0434B93F9363013F1310F27DB474800F00EFB3E4A92F8F1
:400340003630053B5BB282F8363092F83710053982F8371013F1320F03DACE22364B83F83620354C94F93600FFF7EAFE94F93700FFF706FF94F9363013F1320F54D13648FA
:4003800000F0EAFA50E0354800F0E6FA4CE02A4B93F9373013F1310F1EDB314800F0DCFA254A92F83730053B5BB282F8373013F1320F03DACE22204B83F837201E4C94F908
:4003C0003700FFF7DDFE94F9373013F1320F2BD1244800F0C1FA27E0234800F0BDFA23E0154B002283F8362083F83720FFF794FE1AE01E4800F0B0FA07A800F0F3FB13E066
:400400001B4800F0A9FA04A800F0ECFB0CE0194800F0A2FA01A800F0E5FB05E0164800F09BFA164800F0DEFB0AB010BD64120000701200007C1200004C81FF1FC80F000033
:40044000EC0F0000141000003C1000006010000088100000B0100000D4100000FC10000024110000481100007011000098110000CC11000000120000301200005812000006
:4004800038B500F047FA044609E000F03DFA054600F04CFA2846FFF793FE013CE4B2002CF3D138BDFEE700BFF0B40022174611E050F82760F3B226F0FF0608E001EB420534
:4004C00011F812406D78A5550132013BDBB2002BF4D10137192FEBD9F0BC7047064B1B78DBB203F00701054A11701B09013213704422034B1A707047CF0100496E58004005
:400500007658004008B50A46002100F038FD08BD38B533222B4B1A8018232B4A13704FF49C71023211800232137040F23F6227490A8002310B7002310A80254A13700222F6
:40054000244B1A7008224FF040231A70032103F500731970204B1B78DBB220490B70204B1A8041F25122023B1A80002419250CE01C4B1B7803F0010343EA440404F0030474
:400580004FF4F07000F0B4FC013D0DB1032CEFD115B90320FFF786FF134B4FF480721A8007221A70002211490A704820023108701A700222033B1A700D4A137843F00F031B
:4005C000137038BD8040004082400040884000408E4000400043004008010049A146004022420040254200400440004006400040A243004008B500F0B7FC08BD38B572B6BB
:40060000354A137843F00403137000240CE0334D630019194A0011462A44084691882858FFF770FF0134E4B2072CF0D900240BE02A49A3001819420088180622416B006B35
:40064000FFF7D8FF0134E4B2002CF1D024494FF09040FFF729FF234A137843F0020313701032137843F0020313701F4C237843F040032370A2F58632513A137843F0100366
:4006800013700A2219491A48FFF7B4FF0A2219491948FFF7AFFF082218491948FFF7AAFF082218491848FFF7A5FF184A137843F008031370164D61232B70FFF729FF812389
:4006C0002B700122134B1A70FFF708FF0E2221461148FFF78FFF38BDE8460040881200006800004803500140A04300408C0700480051004098070048C0510040A4070048E8
:4007000012510040AC07004832510040224300400048004004000840B043004008B500F0F7FB03680C2B00D1FEE7FEE708B5104E104D16E029686B68AC68002204E051F89B
:40074000040B43F8040B0432A242F8D1E868002203E0002143F8041B04328242F9D11035013E002EE6D100F0D9FBFFF78BFCFEE701000000E812000008B5104A104B1A6033
:40078000104A136843F40073136000230AE0032B03D80D4A52F8231000E00C490C4A42F8231001332F2BF2D90A4B1A780A4B1A70074A0A4B1A60FFF721FF08BD0004FA0548
:4007C0000CED00E014ED00E0000000001D0700000080FF1FBC760040C080FF1F08ED00E0014B1B689864704708ED00E04001C0B2014B1870704700BF02E400E00422014B4C
:400800001A60704700E100E00422014B1A60704780E100E010B50446FFF7F6FF2046FFF7DFFF0720FFF7E2FFFFF7E8FF10BD00BF01BE704770B504460E46074B1D681F28F0
:4008400002D90020FFF7F4FF04F01F04103455F8240045F8246070BD08ED00E038B504460D46072902D90020FFF7E2FF1F2C02D90020FFF7DDFF04F01F0000F1604000F5C8
:4008800064406D01EDB2057038BD00BF7222084B1A702022023B1A700622A3F5AF731A70472210331A7000224F331A70704700BF8765004010B500F023FB04460A4A137876
:4008C00043F020031370023A137843F010031370FF3A137843F01003137000F04FF8204600F012FB10BD00BF9765004008B5054B1B7823B9FFF7CAFF0122024B1A70FFF775
:40090000D9FF08BD8481FF1F014B1878704700BF44650040044B1B7813F0200F01D0012070470020704700BF65650040024B1B780BB1024B187070478481FF1F466400402A
:40094000034B1B7813F0040FFAD1024B18707047666400404664004038B5074B1B782BB938BDFFF7EDFF0134A4B201E005460024285D0028F5D138BD8481FF1F054A137868
:4009800043F0010313701032137843F001031370704700BFA2430040014B1B68D864704708ED00E04001C0B2014B1870704700BF03E400E00822014B1A60704700E100E098
:4009C0000822014B1A60704780E100E010B50446FFF7F6FF2046FFF7DFFF0720FFF7E2FFFFF7E8FF10BD00BF08B511490020FFF721FF07210020FFF731FF00220D4B1A70B5
:400A000072220D4B1A70202204331A700B490120FFF710FF07210120FFF720FF0622084B1A70472210331A70022250331A7008BD090C00008681FF1F83640040A10C000026
:400A40002564004010B500F05BFA04460D4A137843F0200313700432137843F010031370094A0123136009490B7843F010030B70022307490B60136000F03EF9204600F0C4
:400A800043FA10BD9364004000E100E09564004080E200E008B5054B5B7823B9FFF7A4FF0122024B5A70FFF7CDFF08BD8681FF1F0122134B1A60134A9378DBB2D178C9B2CA
:400AC000127912F0FF0F01D18B4211D00E4AD05CC0B20133DBB2632B00D90023094A9370137913F0FF0F06D00022064B1A7102E0064B1878C0B20122054B1A60704700BF3B
:400B000080E100E08681FF1F9481FF1F4464004000E100E00122144B1A60144B9A78D2B2DB78DBB29A4206D1104B1B7913F0FF0F15D0642014E00D4B9A78D2B2DB78DBB2C4
:400B40009A4205D2094AD3789078181AC0B207E0064AD3789078181A6430C0B200E000200122034B1A60704780E100E08681FF1F00E100E0164BD9799B79DBB2994205D2E7
:400B80005A1E914214BF0022012204E0CA1A632A14BF00220122002AECD1994207D10D4B1B7813F0040F02D10B4B18707047632900D90021094B58540131054BD971054BC0
:400BC0001B7813F0020F02D00222054B1A6070478681FF1F6564004042640040F881FF1F00E200E038B5074B5B782BB938BDFFF7C1FF0134A4B201E005460024285D002841
:400C0000F5D138BD8681FF1F1D4B1B78DBB213F01E0F05D01B4803F01E0201780A43027003F0200303F0FF0233B3174B1978C9B2164B1B78DBB21648C154164B1B7813F050
:400C4000FF0F02D00121144B197010490B780133DBB20B700B78DBB2632B02D900210B4B19700A4B1978C9B20C4B1B78DBB2994202D10121074B1970002AC5D1704700BF40
:400C8000676400408681FF1F446400408981FF1F9481FF1F8A81FF1F8B81FF1F8881FF1F13E0104B1B78DBB2632B02D900220D4B1A700C4A1378DBB20B49CB5CDBB20B49A2
:400CC0000B7013780133DBB21370064B1B78DBB2074A1278934204D0064B1B7813F0040FDFD070478C81FF1FF881FF1F426400408D81FF1F65640040054A137843F0020366
:400D000013701032137843F002031370704700BFA2430040024A137843F080031370704774650040014B1870704700BF05650040014B1870704700BF45650040014B187031
:400D4000704700BF25650040014B1870704700BF35650040014B1870704700BF84650040014B1878704700BF64650040014B1878704700BF5565004008B501E0FFF7F6FF6C
:400D8000FFF7EEFF10F0100FF8D108BD08B5134A137803F0C00343F0090313702132137843F001031370FF20FFF7BCFFFF20FFF7BFFF7F20FFF7C2FF3F20FFF7C5FF0020BC
:400DC000FFF7C8FF00F09CF8054A137843F01003137000F099F8FFF7CFFF08BD746500409465004008B5054B1B7823B9FFF7CEFF0122024B1A70FFF78DFF08BD8F81FF1F05
:400E0000024A137843F080031370704774640040014B1870704700BF06650040014B1870704700BF46650040014B1870704700BF26650040014B1870704700BF366500406F
:400E4000014B1870704700BF86650040014B1878704700BF66650040014B1878704700BF5665004008B501E0FFF7F6FFFFF7EEFF10F0100FF8D108BD10B5134A137803F09A
:400E8000C00343F009031370104C237843F001032370FF20FFF7BCFFFF20FFF7BFFF7F20FFF7C2FF3F20FFF7C5FF0020FFF7C8FF00F026F8237843F01003237000F024F86F
:400EC000FFF7D0FF10BD00BF746400409665004008B5054B1B7823B9FFF7CEFF0122024B1A70FFF78DFF08BD9081FF1F000000000230800803D000BF01380046FCD1704750
:400F0000EFF3108072B6704780F31088704700BF014B1868704700BF2C81FF1F0E4B70B51E460E4C0025E41AA410A54204D056F8253098470135F8E700F0C4F9084B094C18
:400F40001E46E41AA4100025A54204D056F8253098470135F8E770BDD0120000D0120000D0120000D812000010B5431E0A44914204D011F8014B03F8014FF8E710BD034677
:400F80000244934202D003F8011BFAE770470000000000005374617274696E672070726F6772616D2E2E2E0D0A0000000D0A5B425420526573706F6E73655D20000000009C
:400FC00053746F70200D0A00576865656C20413A20496E63726561736520666F72776172642073706565640D0A000000576865656C20413A204D617820666F7277617264F2
:4010000020737065656420726561636865640D0A00000000576865656C204120616C7265616479206174206D617820666F72776172642073706565640D0A000057686565E3
:401040006C20423A20496E63726561736520666F72776172642073706565640D0A000000576865656C20423A204D617820666F727761726420737065656420726561636881
:4010800065640D0A00000000576865656C204220616C7265616479206174206D617820666F72776172642073706565640D0A0000576865656C20413A20496E6372656173CA
:4010C0006520726576657273652073706565640D0A000000576865656C20413A204D6178207265766572736520737065656420726561636865640D0A000000005768656578
:401100006C204120616C7265616479206174206D617820726576657273652073706565640D0A0000576865656C20423A20496E637265617365207265766572736520737027
:401140006565640D0A000000576865656C20423A204D6178207265766572736520737065656420726561636865640D0A00000000576865656C204220616C7265616479208A
:401180006174206D617820726576657273652073706565640D0A000053656E64696E67204765744D41434164647265737320636F6D6D616E6420746F20426C7565746F6FF5
:4011C0007468206D6F64756C650D0A0053656E64696E6720476574424155445261746520636F6D6D616E6420746F20426C7565746F6F7468206D6F64756C650D0A00000011
:4012000053656E64696E672047657453746174757320636F6D6D616E6420746F20426C7565746F6F7468206D6F64756C650D0A0054657374696E6720666F7220726573706E
:401240006F6E73652066726F6D204254206D6F64756C650D0A00000041542B5645520D0A0000000041542B4D41430D0A0000000041542B424155440D0A00000041542B5300
:401280005441540D0A000000205100401000405100403000F0510040100000000140001000140140000800400140000A004C0140000200500140200060520040840700489D
:4012C00006004300F8B500BFF8BC08BC9E4670474D00000079070000F8B500BFF8BC08BC9E46704729000000F8120000C880FF1F68000000300100000000000000000000A8
:4013000000000000000000000000000000000000000000000000000000000000C21200000000000000000000000000000000000000000000000000000000000000000000D9
:4013400000000000000000000000000000000000000000000000000000000000CC80FF1F000000000000000000000000000000000000000000000000000000000000000003
:40138000000000000000000000000000000000000000000000000000000000000000000000000000000000000000000000000000000000000000000000000000000000002D
:4013C00000000000000000000000000000000000000000000000000000000000000000000000000000000000000000000000000000000000000000000000000000000000ED
:4014000000000000000000000000000000000000000000000000000000000000000000000000000000000000000000000000000000000000000000000000000000000000AC
:40144000000000000000000000000000000000000000000000000000000000000000000000000000000000000000000000000000000000000000000000000000000000006C
:020000040003F7
:0200000480007A
:4000000004520040046400400465004057020140380301406D0401405305014067060140490701400109014065140140481501405216014044170140031B0140034001406E
:40004000084101400842014006430140014701400348014008490140054C01400C4D0140055001400151014004010840094018018372850F860F8738840F8538860F87727B
:4000800003250503072409230B0C100119231B042710290A2B242F0831203401350F37103B203E103F014024410346B047EC483849FF4AFF4BFF4EF04F44500C580459043A
:4000C0005A045C105D015F0166C06A406B02818084738518860C880389088C1F8D108E60907F93E3941C95C096639802993C9BC29C019F04A008A144A404A5FFA80CA9E716
:40010000AB18AD1CAE23AFE1B02CB1C0B240B31FB40FB610B738B808BA22BB08BE40D602D710D804D904DB04DC11DD10DF010024030A084009280A800C02108812021308D2
:40014000180419601A101B021E082002210822012440251026802704284029202A082B022F25302032823308341038A839013D2A3F024410451148024A0154025504562098
:40018000594069486A2070DC73088902C007C21FC40FCA7FCC2FCEEFD0E0D608E2800201059F090A0B510D80150116021726199F260229142A012B49318033073402351875
:4001C000360137603A023E503F40406441024205440146E0470C481849FF4AFF4BFF4C624DA04EF04F41500C5280580459045A045B045C115D315F016640670269106A3037
:400200006B106D106E106F12821C8320882189148A16941C95709623970C99809B039C409D109E03A421A56CA60EA711A95CAB02AD09AE08AF10B060B20FB360B41AB51F09
:40024000B780B802B908BA28BF44C002C740C9FFCA07CBFFCC40CD20CEF0CF05D008D401D604D804D904DA04DB04DC11DD11DF01E040E1A8E240E3200002050107040A107D
:400280000D080F02100812101418152016011740180419401A801D091F1520212131220625402610271028082C102F1532143610374439583E203F02400141014208442001
:4002C00045044710480149204F025008521056015C605E0A65027340856190409158923295019680970A99209A209B049C109D029E08A001A104A205A410A520A602A701A3
:40030000A820A908AC40AD10AF20C058C2A4C4A6CA74CC76CEAED02DD20CD6F0D8800240041C0602070308090A100C100E0C0F041010140C1501161118801C201E03224033
:40034000241430203240330134803502361F37043E154056410346BC470E481C49FF4AFF4BFF4EF04F44500C5401580459045A045B045C305F0166C06A406B02840A865488
:4003800087138A088C538E0C945395319604970E996C9B039E809F08A003A244A820AA45AB4CAD31AF46B080B130B230B34AB440B50FB60FB808B902BA80BB28BE10BF01A7
:4003C000C004C540C9FFCA07CBFFCC40CD20CEF0CF05D008D418D604D804D904DA04DB04DD10DF01E040E1A8E240E3200008018003080420058006800710084009080D88CF
:400400000E800F08108816101702182019A01B091C801D801E041F042048210822102540272A29802B08310832903310370838083D083F40404045084AC04C044D80500C87
:400440005480561457045A025C805E045F11600461406380670C80808120834084409004920293409940AA48C0F7C2F5C43ACA0CCC4ECE52D041D230D6F1D80DE002E00291
:400480000402061507080B020F0413011B081C441E2A2021224A24E728E72B042C802F02308031013207330434183502366037083E103F54406441034201440246E0470CC5
:4004C000481849FF4AFF4BFF4C624DA04EF04F41500C52805407580459045A045B045C205D205F016640670269106A306B106D106E106F128302870188049C019F03AA0C59
:40050000AE03B004B201B301B408B602B702C050C103C5D0C620C751C83AC9FFCAFFCBFFCDA0CF04D018D418D604D804D904DA04DB04DC22DD02DF01E040E2C0E440E540D2
:40054000E6C0E8C0EAC0ECC0EEC0010805100A020B020E01104211141609180419081A021B021D101E51220423C52540272029802A1031013220378038083B603D023E0803
:40058000408641044302461049204D024F40500453105501561959025A585F026785710181488760884289408AA08B208E01911C9540970299A09B029CC0A002A221A68087
:4005C000A722C044C281C4CFCA0CCC15CECED04FD214D68FD8B0E002E21008010E072A082E0C30013208340236044010410445D046024715483649FF4AFF4BFF4DA04F04F3
:400600005018540758045A045B045C035D335F01604062C06440654066C068C06AC06CC06EC08001818084738518860C887F89088DC08E23901C913C926393C2941F951C4D
:40064000966097E1980499449C029D10A008A3E3A5FFA80CA9E7AB18AC03AF04B010B11FB22CB40FB538B640B7C0B880BA28BB0ABE01D602D713D804D904DB04DF01002486
:4006800002840302051006020A140B4210801140131016081740180419A51A101C401D101E021F082020210422212342288029202A042B013080310432013320382839403E
:4006C0003B024540468047404F015504568A59015C405F2568026914709472047310830893049B209C409E80A140A301A504AC80AF10B604B701C0CFC20FC4CBCA0FCC0FFF
:40070000CE0FD090D6F1E002E280E42033123618CCF0038051108A109F10A618A702C010D420851095209F10A608A702AF80E240EC10820883109F10A608A702E22087205D
:400740008004A702E6805004571087028F109008A702D460E2105A0466109B20D602D80110407720860488408A1096049B209E10C408DE04E201E404000B08020A0B100DC6
:400780001A0D00FF808000004000000002000102020002000000000080004080800080000000000000CBCB00C000000000030300030000000000000000000000000000002B
:4007C00000000000000000000000000000000000000000000000000000000000000000000000000000000000000000000000000000000000000000000000000000000000F9
:4008000000000000000000000000000000000000000000000000000000000000000000000000000000000000000000000000000000000000000000000000000000000000B8
:400840000000000000000000000000000000000000000000000000000000000000000000000000000000000000000000000000000000000000000000000000000000000078
:400880000000000000000000000000000000000000000000000000000000000000000000000000000000000000000000000000000000000000000000000000000000000038
:0200000490006A
:0400000000004005B7
:0200000490105A
:04000000BC90ACAF55
:0200000490303A
:0200000019FEE7
:0200000490402A
:4000000000000000000000000000000000000000000000000000000000000000000000000000000000000000000000000000000000000000000000000000000000000000C0
:400040000000000000000000000000000000000000000000000000000000000000000000000000000000000000000000000000000000000000000000000000000000000080
:400080000000000000000000000000000000000000000000000000000000000000000000000000000000000000000000000000000000000000000000000000000000000040
:4000C0000000000000000000000000000000000000000000000000000000000000000000000000000000000000000000000000000000000000000000000000000000000000
:0200000490501A
:0C00000000012E16106900012E1F2A6757
:00000001FF