:400000000080002011000000BD060000BD06000008B5044B1A6803F53F5302331A6000F06DFB00BFFA46004010B5054C237833B9044B13B10448AFF300800123237010BD89
:400040003881FF1F000000003C210000084B10B51BB108490848AFF300800848036803B910BD074B002BFBD0BDE81040184700BF000000003C81FF1F3C210000C880FF1F68
:400080000000000000B585B062B601A800F06EF8094800F0F7FE094800F0D2FB00F090FE00F032FC00F04EFE00F0D6FD044800F0BDFE00F0B7F9FCE7010400007901000067
:4000C0004021000008B5084800F0B0FE002000F0E5FD002000F0E8FD002000F069FD002000F06CFD08BD00BF5821000008B580EAE073A3EBE073C3EB03230B4AA2FB0323DA
:40010000C3F30713002807DBD843C0B200F0C6FDFF2000F0C9FD08BDD843C0B200F0C4FDFF2000F0BBFD08BD1F85EB5108B580EAE073A3EBE073C3EB03230B4AA2FB03231A
:40014000C3F30713002807DBD843C0B200F030FDFF2000F033FD08BDD843C0B200F02EFDFF2000F025FD08BD1F85EB51014B1860704700BF5481FF1F10B5ACB071E000F0EA
:40018000D1FB3B4B1B79302B06D8582804D0384A591C117113441872582803D0344B1B79302B5ED932480379034400221A7200F1080423462F4A962103A800F0D1FE03A8E4
:4001C00000F034FE29AB01932AAB00932BAB0DF1A3022949204600F0F5FE042827D19DF8A330242B0CD19DF9A8409DF9AC00FFF77DFF2046FFF79AFF204800F017FE29E084
:40020000402B27D11A4B1B6823B30020FFF76EFF0020FFF78BFF164B1B682B9A1A602A9A5A60299A9A60164800F000FE12E003221449154800F0FAFE48B9134B134A9621A4
:4002400003A800F08DFE03A800F0F0FD02E0104800F0ECFD0648002101713222083000F076FE00F091FB002889D12CB010BD00BF5481FF1F602100007421000080210000DC
:400280009C210000D02100005C81FF1FD42100000422000010B588B004464C4B93E8030006908DF81C104A4A03AB07CA03C323F8022B120C1A70474A6B4607CA03C323F81A
:4002C000022B120C1A70322C36D004D8302C60D0312C07D078E0742C70D0752C67D0612C72D15DE03C4B93F93A30312B20DC3B4800F09CFD384A92F83A3005335BB282F8F6
:400300003A30322B03DD3222334B83F83A20324C94F93A00FFF7EAFE94F93A00FFF706FF94F93A30322B4FD12D4800F07FFD4BE02C4800F07BFD47E0274B93F93A3013F19B
:40034000310F22DB284800F071FD234A92F83A30053B5BB282F83A3013F1320F03DACE221D4B83F83A201C4C94F93A00FFF7BEFE94F93A00FFF7DAFE94F93A3013F1320FDF
:4003800022D11A4800F052FD1EE0194800F04EFD1AE00022104B83F83A20FFF793FE13E0144800F043FD03A800F056FB0CE0124800F03CFD684600F04FFB05E00F4800F04E
:4003C00035FD06A800F048FB08B010BD342300003C230000482300005481FF1F142200002822000044220000642200007822000094220000B4220000E02200000C2300008E
:4004000038B500F0F1FC044609E000F0E7FC054600F0F6FC2846FFF73DFF013CE4B2002CF3D138BD014B1868704700BF9081FF1FFEE700BFF0B40022174611E050F827606F
:40044000F3B226F0FF0608E001EB420511F812406D78A5550132013BDBB2002BF4D101371B2FEBD9F0BC7047064B1B78DBB203F00701054A11701B09013213704422034B08
:400480001A707047CF0100496E5800407658004008B50A46002100F05AFD08BD38B533222B4B1A8018232B4A13704FF49C71023211800232137040F23F6227490A80023143
:4004C0000B7002310A80254A13700222244B1A7008224FF040231A70032103F500731970204B1B78DBB220490B70204B1A8041F25122023B1A80002419250CE01C4B1B780E
:4005000003F0010343EA440404F003044FF4F07000F0D6FC013D0DB1032CEFD115B90320FFF786FF134B4FF480721A8007221A70002211490A704820023108701A70022201
:40054000033B1A700D4A137843F00F03137038BD8040004082400040884000408E4000400043004008010049A146004022420040254200400440004006400040A243004086
:4005800008B500F0D9FC08BD38B572B6384A137843F00403137000240CE0364D630019194A0011462A44084691882858FFF770FF0134E4B2082CF0D900240CE02D48A200A3
:4005C00011194B000344B3F84020D96B986BFFF7D7FF0134E4B2012CF0D927494FF09040FFF728FF254A137843F0020313701032137843F002031370214C237843F0400309
:400600002370A2F58632513A137843F0100313700A221C491C48FFF7B3FF0A221B491C48FFF7AEFF08221B491B48FFF7A9FF08221A491B48FFF7A4FF08221A491A48FFF7C8
:400640009FFF1A4A137843F008031370184D61232B70FFF723FF81232B700122154B1A70FFF702FF0E2221461348FFF789FF38BDE8460040542300007000004803500140B7
:40068000A043004040070048005100404C070048C0510040580700481251004060070048225100406807004832510040224300400048004004000840B043004008B500F08C
:4006C0000FFC03680C2B00D1FEE7FEE708B5094B1A681044084BC31A802B02DC054B186005E000F0FDFB0C2303604FF0FF32104608BD00BFCC80FF1F8082FF1F08B5104EFC
:40070000104D16E029686B68AC68002204E051F8040B43F8040B0432A242F8D1E868002203E0002143F8041B04328242F9D11035013E002EE6D100F0D9FBFFF7A3FCFEE728
:40074000010000008425000008B5104A104B1A60104A136843F40073136000230AE0032B03D80D4A52F8231000E00C490C4A42F8231001332F2BF2D90A4B1A780A4B1A70F0
:40078000074A0A4B1A60FFF7FFFE08BD0004FA050CED00E014ED00E000000000BD0600000080FF1FBC760040C080FF1F08ED00E001BE704770B504460E46074B1D681F2847
:4007C00002D90020FFF7F4FF04F01F04103455F8240045F8246070BD08ED00E038B504460D46072902D90020FFF7E2FF1F2C02D90020FFF7DDFF04F01F0000F1604000F549
:4008000064406D01EDB2057038BD00BF014B1B689864704708ED00E04001C0B2014B1870704700BF02E400E00422014B1A60704700E100E00422014B1A60704780E100E07C
:4008400010B50446FFF7F6FF2046FFF7DFFF0720FFF7E2FFFFF7E8FF10BD00BF08B511490020FFF7A7FF07210020FFF7B7FF00220D4B1A7072220D4B1A70202202331A709B
:400880000B490120FFF796FF07210120FFF7A6FF0622084B1A70472210331A7002224F331A7008BD7D0A00009C81FF1F82640040150B00002664004010B500F009FB04464F
:4008C0000D4A137843F0200313700232137843F010031370094A0123136009490B7843F010030B70022307490B60136000F03EF9204600F0F1FA10BD9264004000E100E0B6
:400900009564004080E200E008B5054B5B7823B9FFF7A4FF0122024B5A70FFF7CDFF08BD9C81FF1F0122134B1A60134A9378DBB2D178C9B2127912F0FF0F01D18B4211D01C
:400940000E4AD05CC0B20133DBB2632B00D90023094A9370137913F0FF0F06D00022064B1A7102E0064B1878C0B20122054B1A60704700BF80E100E09C81FF1FB481FF1F08
:400980004264004000E100E00122144B1A60144B9A78D2B2DB78DBB29A4206D1104B1B7913F0FF0F15D0642014E00D4B9A78D2B2DB78DBB29A4205D2094AD3789078181A56
:4009C000C0B207E0064AD3789078181A6430C0B200E000200122034B1A60704780E100E09C81FF1F00E100E0164BD9799B79DBB2994205D25A1E914214BF0022012204E097
:400A0000CA1A632A14BF00220122002AECD1994207D10D4B1B7813F0040F02D10B4B18707047632900D90021094B58540131054BD971054B1B7813F0020F02D00222054B9B
:400A40001A6070479C81FF1F65640040456400401882FF1F00E200E038B5074B5B782BB938BDFFF7C1FF0134A4B201E005460024285D0028F5D138BD9C81FF1F1D4B1B7884
:400A8000DBB213F01E0F05D01B4803F01E0201780A43027003F0200303F0FF0233B3174B1978C9B2164B1B78DBB21648C154164B1B7813F0FF0F02D00121144B197010496A
:400AC0000B780133DBB20B700B78DBB2632B02D900210B4B19700A4B1978C9B20C4B1B78DBB2994202D10121074B1970002AC5D1704700BF646400409C81FF1F42640040DC
:400B00009F81FF1FB481FF1FA081FF1FA181FF1F9E81FF1F13E0104B1B78DBB2632B02D900220D4B1A700C4A1378DBB20B49CB5CDBB20B490B7013780133DBB21370064B28
:400B40001B78DBB2074A1278934204D0064B1B7813F0040FDFD07047A281FF1F1882FF1F45640040A381FF1F65640040054A137843F0020313701032137843F00203137027
:400B8000704700BFA2430040024A137843F080031370704774650040014B1870704700BF04650040014B1870704700BF44650040014B1870704700BF24650040014B1870AD
:400BC000704700BF34650040014B1870704700BF84650040014B1878704700BF64650040014B1878704700BF5465004008B501E0FFF7F6FFFFF7EEFF10F0100FF8D108BD74
:400C000010B5134A137803F0C00343F009031370104C237843F001032370FF20FFF7BCFFFF20FFF7BFFF7F20FFF7C2FF3F20FFF7C5FF0020FFF7C8FF00F04AF9237843F0DE
:400C40001003237000F048F9FFF7D0FF10BD00BF746500409465004008B5054B1B7823B9FFF7CEFF0122024B1A70FFF78DFF08BDA581FF1F024A137843F08003137070476F
:400C800076650040014B1870704700BF05650040014B1870704700BF45650040014B1870704700BF25650040014B1870704700BF35650040014B1870704700BF8665004044
:400CC000014B1878704700BF66650040014B1878704700BF5565004008B501E0FFF7F6FFFFF7EEFF10F0100FF8D108BD08B5134A137803F0C00343F0090313701F32137839
:400D000043F001031370FF20FFF7BCFFFF20FFF7BFFF7F20FFF7C2FF3F20FFF7C5FF0020FFF7C8FF00F0D4F8054A137843F01003137000F0D1F8FFF7CFFF08BD766500404E
:400D40009665004008B5054B1B7823B9FFF7CEFF0122024B1A70FFF78DFF08BDA681FF1F7222084B1A702022023B1A700622A3F261131A70472210331A70002253331A70D6
:400D8000704700BF8765004010B500F0A1F804460A4A137843F020031370023A137843F010031370FE3A137843F01003137000F077F8204600F090F810BD00BF9765004020
:400DC00008B5054B1B7823B9FFF7CAFF0122024B1A70FFF7D9FF08BDA781FF1F014B1878704700BF47650040044B1B7813F0200F01D0012070470020704700BF656500404A
:400E0000024B1B780BB1024B18707047A781FF1F47640040034B1B7813F0040FFAD1024B18707047676400404764004038B5074B1B782BB938BDFFF7EDFF0134A4B201E01C
:400E400005460024285D0028F5D138BDA781FF1F014B1B68D864704708ED00E04001C0B2014B1870704700BF03E400E00822014B1A60704700E100E00822014B1A607047EB
:400E800080E100E010B50446FFF7F6FF2046FFF7DFFF0720FFF7E2FFFFF7E8FF10BD00BF054A137843F0010313701032137843F001031370704700BFA243004000000000A0
:400EC0000230800803D000BF01380046FCD17047EFF3108072B6704780F31088704700BF014B1868704700BF3081FF1F0E4B70B51E460E4C0025E41AA410A54204D056F8A4
:400F0000253098470135F8E701F02AFB084B094C1E46E41AA4100025A54204D056F8253098470135F8E770BD6C2500006C2500006C2500007425000010B5431E0A4491425D
:400F400004D011F8014B03F8014FF8E710BD03460244934202D003F8011BFAE7704700000CB430B5164B0C1E9DB01D6804DA8B232B604FF0FF301EE04FF40273ADF8143046
:400F80000CBF234604F1FF33049307934FF6FF7302900690ADF81630209A21AB02A92846019300F0B1F8431CBCBF8B232B6014B1029B00221A701DB0BDE8304002B07047A3
:400FC0003081FF1F0EB430B59CB01FAC4FF4017254F8045BADF814200290069000F01EF80B4B03900B9300230F9314934FF6FF7307900848ADF816302A46234602A9006894
:40100000019400F0D1F91CB0BDE8304003B07047191000003081FF1F00207047034613F8012B002AFBD1181A0138704730B582B1451E013915F8013F11F8014FA34206D198
:40104000EC431444E04201D0002BF3D11C46181B30BD104630BD2DE9F0478E6882469E420C46914698463ED88A8912F4906F3AD02568096902236F1A656905EB450595FBD3
:40108000F3F57B1C43449D4238BF1D4653050FD5294600F0B3FF064698B13A462169FFF74BFFA38923F4906343F08003A38113E02A4601F001F8064670B92169504600F0E3
:4010C00051FF0C23CAF80030A3894FF0FF3043F04003A381BDE8F08726613E44266046466561ED1BA560464528BF464649463246206800F01CFFA36800209B1BA36023683A
:401100001E442660BDE8F0872DE9F04F9DB003938B8980461C060D4616460DD50B695BB9402100F06BFF2860286118B90C23C8F80030CDE040236B610023099320238DF83F
:401140002930DFF89CB130238DF82A3037463C4614F8013B1BB9B7EB060910D003E0252BF9D02746F3E74B46324629464046FFF772FF013000F0A780099B4B4409933B78A2
:40118000002B00F0A08000234FF0FF3204930793059206938DF853301A930126052221784E4800F0B6FE671C049B38B14B4A3C46801A06FA00F018430490EFE7D90644BFD7
:4011C00020228DF853201A0744BF2B228DF8532022782A2A03D0079A00210A200BE0039A111D12680391002A10DA524243F00200079204900BE027463B780134303B092BF2
:4012000003D800FB02320121F5E701B107923B782E2B1ED17B782A2B0AD1039B02371A1D1B680392002BB8BF4FF0FF33059310E0002319460593781C0A2407463A78013070
:40124000303A092A03D804FB01210123F5E703B1059103223978224800F05BFE40B14023CBEB000003FA00F0049B013718430490397806221B487E1C8DF8281000F049FE7B
:4012800088B1194B33B9039B073323F007030833039314E003AB00932A46144B04A94046AFF3008007E003AB00932A460F4B04A9404600F043FAB0F1FF3F824603D0099B16
:4012C0005344099342E7AB895B0601D4099801E04FF0FF301DB0BDE8F08F00BFA2230000A8230000AC23000000000000571000004B1C70B50E46144602D14FF0FF3070BD1A
:401300009389CDB223F020039381536B526883B1A36B9A4207DA23685A1E226003F8016C636801331FE0214600F0BAFD0028F2D0E3E72169236851B1994208D213F8011CB0
:401340008D4204D1013B0132236062600CE0E36304F1440363630323A3632346226403F8466F236001236360284670BD10B50C46496B69B104F14403994201D000F0F2FD65
:40138000236C00206063636013B1E36B236010BD23694FF0FF30236000236360A38943F02003A38110BD00002DE9F04FDFF89C9207460D46CA46ADF5257D019300234693E2
:4013C00047939E4B0DF10C08A2939D4BDFF874B2CDF82081A3931478002C00F02781D9F8003023445B7803F0080303F0FF01F3B16B68002B10DD2B68DAF80000197801441C
:4014000049780C0710D5479901330131479169682B6001396960EBE7A39B2946384600929847009A0028E6D0561C3246D3E7252C02F1010652D14391459153782A2B02BFF3
:401440001023961C43930A2231783446A1F13003092B06F1010605D8459B02FB0313303B4593F1E70322774800F053FD40B134460123CBEB000003FA00F0439B0343439330
:40148000661C2478672C16D8652C7FD2472C07D8452C7BD2002C00F0CB80252C1ED077E05B2C51D002D8582C3ED071E0632C57D0642C3FD06CE0702C32D007D86E2C55D05C
:4014C0003AD8692C64D1002344933BE0752C31D0782C29D0732C5BD102233FE06B68002B0DDD2B681A78944240F0A08001336A682B60479B013A01336A60479395E7A39B3A
:401500002946384698470028EBD04698002800F08F80AB8913F0400F18BF4FF0FF3089E0439B43F020034393439B43F400734393102302E00A2300E008236E2C449301DDBF
:4015400004230BE0032309E03146404600F074FB0646439B43F040034393012349931BE0439B43F0400343930023F7E7439AD0063FF55BAF12F0010F019A479B02F10401DA
:401580000191126814BF138013604EE70523E5E7032349930A2344936B68002B03DD439B590611D518E0A39B2946384698470028F5D0AAE7479A013247926A68013A002A72
:4015C0006A6013DD01332B602B68DAF800101A780A4452781207EDD4499B022B0DDC01AB2A4643A9384600F0CFF919E0A39B2946384698470028E7D087E7042B06DC01AB34
:401600002A4643A9384600F025FA09E00E4B002B3FF40BAF01AB2A4643A93846AFF30080012803D002287FF400AF6EE7469801E04FF0FF300DF5257DBDE8F08FF11200002A
:401640006D130000A8230000000000003481FF1F2DE9F04791461F460A698B6806469342B8BF1346C9F8003091F843200C46DDF8208012B10133C9F800302368990642BFB5
:40168000D9F800300233C9F80030256815F0060510D104F1190A07E00123524639463046C04701301AD00135E368D9F800209B1A9D42F1DB94F843302268003318BF01232A
:4016C00092060FD5E118302081F843005A1C94F845102244023382F8431003E04FF0FF30BDE8F08704F1430239463046C0470130F4D02268D9F80050E36802F00602042AF4
:4017000008BF5D1B2269A3680CBF25EAE57500259342C4BF9B1AED184FF000091A344D4509D00123224639463046C0470130D5D009F10109F3E70020BDE8F0872DE9F043A7
:4017400017460A7E85B06E2A984606460C460C9B01F1430E00F0AE8011D8632A22D009D8002A00F0BB80582A40F0CA8081F84520834955E0642A1ED0692A1CD0C0E0732A82
:4017800000F0B08009D86F2A2ED0702A40F0B8800A6842F020020A603EE0752A24D0782A3AD0ADE01A6801F14205111D1960136884F84230A8E021681A6811F0800F02D0B5
:4017C000111D196008E011F0400F02F10401196002D0B2F9003000E01368002B3CDA2D225B4284F8432037E021681A6811F0800F02D0111D196007E011F0400F02F104012B
:40180000196001D0138800E01368227E5C496F2A14BF0A2208221BE078225A4984F845202268186812F0800F00F104051D6003D1550601D5038800E00368D00744BF42F04F
:40184000200222601BB9226822F0200222601022002084F8430001E049490A226568002DA56008DB206820F0040020602BB9002D7DD175460CE0002B79D07546B3FBF2F03D
:4018800002FB1033CB5C05F8013D03460028F5D1082A0BD12368DA0708D5236962689A42DEBF302305F8013C05F1FF35C5EB0E0323612EE008681A6810F0800F496903D019
:4018C000101D1860136808E010F0400F02F104001860136801D0198000E0196000232361754616E01A68111D1960156800216268284600F00EFB08B1401B6060636804E011
:4019000004F1420584F8422001232361002384F84330CDF800803B4603AA21463046FFF797FE013002D14FF0FF3026E023692A4639463046C0470130F5D023689B0710D580
:40194000002504F1190907E001234A4639463046C0470130E7D00135E368039A9B1A9D42F2DBE068039B9842B8BF184605E00B7804F1420584F842308AE705B0BDE8F083C8
:40198000B3230000C42300002DE9F84315468A6880460C4632B98A69002A0CBF01224FF0FF328A602268DFF8A890D10658BF1A684FF000065EBF111D19601768A069F8B919
:4019C00023680136DA065EBF2B681B783B702A686B6802F101022A60A26803F1FF3302F1FF326B6058BF0137A260E2B1002BE5DCD4F880312946404698470028DED012E06A
:401A0000012806D12B681A7863699B5C002BD7D119E0022807D12B68D9F800201B7813445B781B07CCD5236813F0100305D1E2680132E260A26902B13B70236900201E443F
:401A40002661BDE8F883002EEDD1BDE8F88300BF3481FF1F2DE9F04F0C469A46724B87B08346164693E8070003ABA76883E807006E4BA1696E4A04F11C09032918BF1A46D8
:401A80007B1EB3F5AE7F84BF40F25D13A360236888BF6FF4AE7543F4506323604B4600928CBF7F1900274FF000083168019303AB53F828000222097800F02BFA019B0028CB
:401AC00033D0B8F1010F0BD162682AB908226260226842F400722260226822F4A0620CE0B8F1020F0AD1226802F4C061B1F5007F1BD11021616042F480722260A268511E17
:401B0000A16092B132685D1C511C316012781A707368013B002B736006DCD4F88031314658469847002841D12B4608F10108B8F1030FBAD162680AB90A22626062683D4916
:401B40006069891A019300F077F8019B4FF000081D46A36863B3316860690A78805C38B3302A226808D1100506D508F1010857B10133013FA36006E022F4106222600B7853
:401B8000013505F8013C7368013B002B736003DD33680133336005E0D4F8803131465846984728B9A368013BA360D2E74FF000082368D9050CD54D4508D915F8011C6F1E69
:401BC000D4F87C313246584698473D464D4527D0226812F010021BD12A70636849465846009EB0472268DAF8003012F0200F07D1D20705D51A1DCAF800201B68188004E05A
:401C00001A1DCAF800201B681860E3680133E3602369C9EB050545441D442561002000E0012007B0BDE8F08FD8230000A51D0000991C0000F423000070B50B78441E5E2BFC
:401C400013BF4A1C8A1C4B78002108BF012100F1FF0504F8011FAC42FBD10BB9501E70BD81F001041146C4540D784A1C2D2D06D05D2D0FD00DB12B46F4E7084670BD4E78DB
:401C80005D2EF8D0B342F6DC023101339E42C454FBDCE9E7104670BD2DE9F0470F4680463F48D0F800903D4615F8014B09EB0400407800F0080000F0FF0608B12F46F2E7BA
:401CC0002D2C03D1BD1C7C78012603E02B2C04BF7C78BD1C13B1102B0AD15BE0302C57D1287800F0DF0058284DD16C7810230235002E14BF4FF0004C6FF0004CBCFBF3FA2A
:401D00000027384603FB1ACC09EB040E9EF801E01EF0040F01D0303C0BE01EF0030E1BD0BEF1010F0CBF4FF0370E4FF0570ECEEB0404A34210DDB7F1FF3F0AD0504506D8D2
:401D400001D1644503DC03FB0040012701E04FF0FF3715F8014BD7E77B1C0CD1002E4FF0220314BF4FF000406FF00040C8F800302AB9BDE8F08706B1404272B107B1691EB5
:401D80001160BDE8F0873024002BB1D10823AFE70A23ADE7302CA3D0AAE7BDE8F08700BF3481FF1F2DE9F0470E4680463B48D0F80090354615F8014B09EB0400407800F04F
:401DC000080000F0FF0708B12E46F2E72D2C03D1B51C7478012703E02B2C04BF7478B51C13B1102B0AD153E0302C4FD1287800F0DF00582845D16C78102302354FF0FF3CBD
:401E0000BCFBF3FC03FB0CFA00266FEA0A0A304609EB040E9EF801E01EF0040F01D0303C0BE01EF0030E1AD0BEF1010F0CBF4FF0370E4FF0570ECEEB0404A3420FDD002EAE
:401E400008DB604506D801D1544503DC03FB0040012601E04FF0FF3615F8014BD8E7002E07DA2223C8F800304FF0FF302AB9BDE8F08707B1404272B106B1691E1160BDE87E
:401E8000F0873024002BB9D10823B7E70A23B5E7302CABD0B2E7BDE8F08700BF3481FF1F2DE9F0410C46496B04F1440399421AD14FF4806100F0A2F818B94FF0FF30BDE811
:401EC000F0814FF48063A36394F84630606380F8FF3394F8453000F2FD30437094F844300370206012E0A66B77003A4600F0E4F805460028E1D000EB0608014632464046E8
:401F0000FFF71AF8C4F800806563A7630020BDE8F08110B5C9B202449042034605D01C7801308C42F8D1184610BD002010BD884210B501EB020301D8421E0BE09842FBD220
:401F40008118D21AD34204D013F8014D01F8014DF8E710BD994204D011F8014B02F8014FF8E710BD38B50546002944D051F8043C0C1F002BB8BFE41800F0D4F81E4A136847
:401F8000114613B96360146030E0A3420DD92268A018834201BF18685B681218226063600C6023E0A24203D813465A68002AF9D118681918A1420BD12168014458188242C4
:401FC000196013D110685268014419605A600DE002D90C232B6009E021686018824201BF106852680918216062605C602846BDE8384000F098B838BDB081FF1F70B5CD1C7B
:4020000025F0030508350C2D38BF0C25002D064601DBA94202D90C23336046E000F082F8234B1C681A462146A1B10B685B1B0ED40B2B03D90B60CC18CD501EE08C420BBF8E
:4020400063684B681360636018BF0C4615E00C464968E9E7174C23681BB9304600F052F820602946304600F04DF8431C18D0C41C24F00304A0420DD12560304600F053F877
:4020800004F10B00231D20F00700C31A0ED05A42E25070BD211A304600F034F80130EBD10C233360304600F03EF8002070BD00BFB081FF1FAC81FF1FF8B5074615460E46AC
:4020C00021B91146BDE8F840FFF798BF1AB9FFF749FF2846F8BD00F027F885420ED929463846FFF78BFF044650B131462A46FEF723FF31463846FFF735FF01E03046F8BDB3
:402100002046F8BD38B5064C0023054608462360FEF7DCFA431C02D1236803B12B6038BD7C82FF1F7047704751F8040C0028BEBF091851F8043CC01804387047000000004D
:402140005374617274696E672070726F6772616D2E2E2E0D0A00000053746F70200D0A005B425420526573706F6E73655D2025730D0A000025632C25642C25642C2564004A
:402180005370656564207375636365737366756C6C79207365740D0A0000000054757272657420646972656374696F6E20616E642073686F6F74206D6F64652073756363CC
:4021C00065737366756C6C79207365740D0A000041542B005B425420496E666F5D20415420436F6D6D616E64206F7220726573706F6E73652072656365697665643A202521
:40220000730D0A0050617273696E67206572726F720D0A00496E6372656173652073706565640D0A000000004D617820666F72776172642073706565642072656163686579
:40224000640D0A00416C7265616479206174206D617820666F72776172642073706565640D0A000044656372656173652073706565640D0A000000004D617820726576650D
:4022800072736520737065656420726561636865640D0A00416C7265616479206174206D617820726576657273652073706565640D0A00004665746368696E67204D414306
:4022C0002061646472657373206F6620426C7565746F6F7468206D6F64756C650D0A00004665637468696E67205541525420696E666F2066726F6D20426C7565746F6F74BE
:4023000068206D6F64756C650D0A000054657374696E6720666F7220726573706F6E73652066726F6D204254206D6F64756C650D0A00000041540D0A0000000041542B41B0
:402340004444523F0D0A000041542B554152543F0D0A0000405100403000F0510040100000000140000280020140800D00140140800200170140000500400140000A004CAB
:402380000140000200500140200000000002014040060048800080160140C006004880004300232D302B2000686C4C0065666745464700303132333435363738394142436E
:4023C000444546003031323334353637383961626364656600000000F6230000F9230000FC230000412D46612D66383930313233343536375D002B2D0030300078580000BE
:402400002020202020202020202828282828202020202020202020202020202020202020881010101010101010101010101010100404040404040404040410101010101074
:40244000104141414141410101010101010101010101010101010101010101101010101010424242424242020202020202020202020202020202020202020210101010203E
:40248000000000000000000000000000000000000000000000000000000000000000000000000000000000000000000000000000000000000000000000000000000000001C
:4024C00000000000000000000000000000000000000000000000000000000000000000000000000000000000000000000000000000000000000000000000000000000000DC
:40250000000000000000000000000000000000000000000000000000000000000000000000000000000000000000000000000000000000000000000000000000000000009B
:402540000000000000000000000000000000000000000000000000000000000000000000F8B500BFF8BC08BC9E4670474D00000049070000F8B500BFF8BC08BC9E467047C0
:402580002900000098250000C880FF1F700000004801000000000000000000008082FF1F000000000025000020250000402500000000000000000000000000000000000027
:4025C000A023000000000000000000000000000000000000000000000000000000000000000000000000000000000000000000000000000000000000000000000000000018
:40260000D080FF1FFF23000000000000000000000000000000000000000000000000000000000000000000000000000000000000000000000000000000000000000000000A
:40264000000000000000000000000000000000000000000000000000000000000000000000000000000000000000000000000000000000000000000000000000000000005A
:40268000000000000000000000000000000000000000000000000000000000000000000000000000000000000000000000000000000000000000000000000000000000001A
:4026C00000000000000000000000000000000000000000000000000000000000000000000000000000000000000000000000000000000000000000000000000000000000DA
:402700000000000000000000000000000000000000000000000000000000000000000000000000000000000000000000000000000000000000000000000000000000000099
:020000040003F7
:0200000480007A
:40000000055200400464004004650040170201403903014065040140460501406B06014046070140010D014065140140461501400F1601403D17014001190140021B014032
:400040000340014009410140064201400143014002440140024501400348014009490140054C0140064D014005500140015101400401082009201918644082728438850F77
:40008000870F840F8538860F8772862C88018A268E08902C920398019A0EA210A301A603AE10B00FB101B210B42ABA22BB80BE04D804D904DC10DF01012803020541071002
:4000C0000A440C140D2A0F0210A0120214011580172A188819041A441D411E181F0121402240238025042602271128402C542F01342137883D083EA24420458246804C80CF
:400100004E024F2055405E086D547622772A82418310842085C0C0B7C2FAC4FDCAF1CCF0CEF0D0D0D230D640E008045306040C80100A1254160818531A0C1B01242026451C
:4001400028032A4430403230340F3501368038083A203E414002460449FF4A074BFF4C404D204EF04F05500854185604580459045A045B045D105F01604061A862406320A3
:40018000838087808B018F0191129320940195A096269718981499389A499B849C0A9D409E519F06A49FA520A89FA998AB22AC80AD28B080B13EB207B380B418B501B660F7
:4001C000B740BE40BF54C064C102C5E0C7BCC832C9FFCAFFCBFFCEF0CF44D00CD401D604D804D904DA04DB04DC11DD11DF01E6C0EA40EB0200800210040806100A680D28EE
:400200000F021028155419AC1AA81DAA2008262427422C062E082F083010360937583D8A3E104110442445054D014E0850B0540255045B015C605D015E0460026221674067
:4002400080C08204830287408F0290889154925098029B019DA89E01A140A301A420A5AAA702A802A904AC40AF01C005C2EEC4E6CA70CCF4CEF0D0A4D220D6F1D88DE21053
:400280000315041C0503062307040A080E1C130814211533160E170C19331B041C401E032080242126162D2A2F04300F321A33303480350F3660388039083A0A3B203E10BA
:4002C0003F044002470449FF4A074BFF4C404D204EF04F055008580459045A045C115D015F01604061A862406320856C860487118B208C1F8D5C8F02901C920193039418F4
:40030000980499149C109D10A01CA202A408A509A710A807A970AA18AB0CAD80AE03B11FB380B560B61FB920BA82BF14C065C102C50BC60EC70CC815C9FFCAFFCBFFCEF061
:40034000CF44D00CD401D804D904DA04DB04DF01E6C0EA40EB020048054006080710081009880B400E200F011040120A13041501170818401A011D401E661F0820802112BC
:4003800022042728280129242A402C082E5030A031023611370838AC3D0A3F0140044720482249204F0150085240560858015A98801290A8910192809520960499249C10BB
:4003C0009E089F18A084A104A448A501A601A708C0E5C2AFC43FCA1ECCEDCECED024D20CD60FE0080402061507040B020C440E2A0F0114E7170818211A4A1B0E24E72C8092
:40040000306031023207330834183501368037043E103F044020410645D546104702481B49FF4AFF4BFF4DA04F04501852805407580459045A045B045C205D225F0160409D
:4004400062C06440654066C068C06AC06CC06EC0870C88018B0791019A099C04A606AB08B004B101B201B304B408B508B602B702BF10C030C102C5D0C610C752C83AC9FFD3
:40048000CAFFCBFFCDA0CF04D018D418D604D804D904DA04DB04DC32DD03DF01E040E2C0E440E540E6C0E8C0EAC0ECC0EEC000400108051008100A200D800F041020114059
:4004C00016101844194C1B021D901E502121228427A92F083120320837013A103B443D083E043F2041204504460449014A084B044D0152185605571859015A585F0265A0A9
:4005000067807340850187608810914092249404950199A09B029C109D449E019F88A020A680A702C045C2C6C425CA20CC86CE6ED064D204D68FD8B0E4020E0710011A04A0
:400540002E0830023201340836045280540758045B045C035D305F0100400108060108400A010B600E4410801228174019A91E5621012228234228402944301031803208AE
:40058000330234203620386839024064488049404A0A531059015D015E105F88682069406A207014718873047740820186809040920197449C50A588A60AAA40AB10C085E8
:4005C000C25DC48ECA0BCC0FCE0FD007D20CD6F1E408E408E220E40233123648CCF00380522083129F10A648A702C010D420E22086408E20A668AF80E640EC10A6087002B9
:40060000DC018402A4028240A608E6805A806304860887049280A608D480D840E250630266088701D602D8011010860888109E08C408E204000308030A03100D1A0D00FF1B
:400640001F1060001C3C63C20018000073000CE300FF23000308000002E700180100000408440000048000000CC000007F1C00E12C38401F10000FC0080082080000100065
:400680003406050001C00E0006FFFFFF62A0F0410C0000000000021204040404111100010000000000004002001030100010101200000000000000000000000000000000DF
:4006C000000F00F0000C02000004000009FF00000842010000F3020C0021000008080100001C04E30063040009000000000000F3088C010F021C04600800000A0000510074
:400700006504030002C0E0000AFFFFFF62A0F0410C00000000000213040404040000000100000000000040020010301000101012000000000000000000000000000000007B
:40074000020001020200020000000000800040808000800000000000007B7B0030000000002020000000000000181800180000000000000000000000000000000000000082
:400780000000000000000000000000000000000000000000000000000000000000000000000000000000000000000000000000000000000000000000000000000000000039
:4007C00000000000000000000000000000000000000000000000000000000000000000000000000000000000000000000000000000000000000000000000000000000000F9
:4008000000000000000000000000000000000000000000000000000000000000000000000000000000000000000000000000000000000000000000000000000000000000B8
:400840000000000000000000000000000000000000000000000000000000000000000000000000000000000000000000000000000000000000000000000000000000000078
:0200000490006A
:0400000000004005B7
:0200000490105A
:04000000BC90ACAF55
:0200000490303A
:02000000B70A3D
:0200000490402A
:4000000000000000000000000000000000000000000000000000000000000000000000000000000000000000000000000000000000000000000000000000000000000000C0
:400040000000000000000000000000000000000000000000000000000000000000000000000000000000000000000000000000000000000000000000000000000000000080
:400080000000000000000000000000000000000000000000000000000000000000000000000000000000000000000000000000000000000000000000000000000000000040
:4000C0000000000000000000000000000000000000000000000000000000000000000000000000000000000000000000000000000000000000000000000000000000000000
:0200000490501A
:0C00000000012E16106900012E25C773A8
:00000001FF