:400000000080002011000000E5080000E508000008B5044B1A6803F53F5302331A6000F081FC00BFFA46004010B5054C237833B9044B13B10448AFF300800123237010BD20
:400040008081FF1F00000000AC470000084B10B51BB108490848AFF300800848036803B910BD074B002BFBD0BDE81040184700BF000000008481FF1FAC470000C880FF1FAC
:400080000000000030B5A1B062B61DA800F0BAF8294801F02BF8294800F006FD00F0C4FF00F066FD00F082FF00F00AFF00F03CFA234800F0EFFF00F023FA0346214A3221AF
:4000C00010A802F0D3FA10A800F0E4FF00F0A4FA00F016FA0028FBD0002000F017FA1A4800F0D8FF00F064FA04460D46CDE90045164A322103A802F0B9FA03A800F0CAFFE6
:40010000002200232046294601F0C4FD68B100220F4B2046294601F0A9FD30B1012000F0E9F90C4800F0B6FFD2E7002000F0E2F9094800F0AFFFCBE7B50400001102000014
:40014000B0470000C8470000DC4700000848000000003E401C4800003048000008B5084800F098FF002000F0CDFE002000F0D0FE002000F051FE002000F054FE08BD00BF1A
:400180004848000008B580EAE073A3EBE073C3EB03230B4AA2FB0323C3F30713002807DBD843C0B200F0AEFEFF2000F0B1FE08BDD843C0B200F0ACFEFF2000F0A3FE08BD46
:4001C0001F85EB5108B580EAE073A3EBE073C3EB03230B4AA2FB0323C3F30713002807DBD843C0B200F018FEFF2000F01BFE08BDD843C0B200F016FEFF2000F00DFE08BD0E
:400200001F85EB51014B1860704700BF9C81FF1F10B5ACB07AE000F0B9FC3F4B1B79302B06D8582804D03C4A591C117113441872582803D0384B1B79302B67D93648037941
:40024000034400221A7200F108042346334A962103A802F00BFA03A800F01CFF29AB01932AAB00932BAB0DF1A3022D49204602F053FA04282DD12B4800F00CFF2A4800F039
:400280001FFD9DF8A330242B0CD19DF9A8409DF9AC00FFF777FF2046FFF794FF234800F0F9FE2CE0402B2AD11B4B1B683BB30020FFF768FF0020FFF785FF174B1B682B9A17
:4002C0001A602A9A5A60299A9A60194800F0E2FE15E003221749184802F052FA48B9164B164A962103A802F0C1F903A800F0D2FE05E0134800F0CEFE124800F0E1FC064854
:40030000002101713222083001F037FD00F070FC002880D12CB010BD9C81FF1F5048000064480000704800009C480000A4480000C0480000F4480000A481FF1FF84800002D
:40034000284900005049000010B588B004464C4B93E8030006908DF81C104A4A03AB07CA03C323F8022B120C1A70474A6B4607CA03C323F8022B120C1A70322C36D004D8FE
:40038000302C60D0312C07D078E0742C70D0752C67D0612C72D15DE03C4B93F93A30312B20DC3B4800F076FE384A92F83A3005335BB282F83A30322B03DD3222334B83F87B
:4003C0003A20324C94F93A00FFF7DCFE94F93A00FFF7F8FE94F93A30322B4FD12D4800F059FE4BE02C4800F055FE47E0274B93F93A3013F1310F22DB284800F04BFE234AE3
:4004000092F83A30053B5BB282F83A3013F1320F03DACE221D4B83F83A201C4C94F93A00FFF7B0FE94F93A00FFF7CCFE94F93A3013F1320F22D11A4800F02CFE1EE01948E4
:4004400000F028FE1AE00022104B83F83A20FFF785FE13E0144800F01DFE03A800F030FC0CE0124800F016FE684600F029FC05E00F4800F00FFE06A800F022FC08B010BDF9
:40048000784A0000804A00008C4A00009C81FF1F584900006C49000088490000A8490000BC490000D8490000F8490000244A0000504A000038B500F0CBFD044609E000F050
:4004C000C1FD054600F0D0FD2846FFF73DFF013CE4B2002CF3D138BD08B500F065FE00F04FFE00F081FE024B188001225A6008BDD881FF1F014B9860704700BFD881FF1FF3
:40050000014BD868704700BFD881FF1F014BD860704700BFD881FF1F08B500F059FF0120FFF7F4FF08BD00BF08B562B6002000F007FE00F0F7FD00F037FE0B4800F026FEE4
:4005400000F078FE00F0A2FE084800F0A3FD00F045FF00F007FF00F03BFF054800F02AFF044800F097FD08BDD9040000984A000019050000B04A000008B5012000F094FE1F
:400580000A2000F041FA002000F08EFE00F00CFE00F0F0FD012000F0D3FD0A2000F034FA002000F0CDFD00F005FE08BD0000000010B5FFF7E1FF002404E00134A4B2012069
:4005C00000F00CFA124B5B6813B9B4F57A7FF4D30F4B5B688BB10E4B00225A60188880B201F05CF806A3D3E9002301F0CDF806A3D3E9002301F0F2F910BD0020054910BD61
:40060000666666666676754000000000004C0D41D881FF1F0000F0BF10B5054C054B064A0649204602F054F8204600F033FD10BD0082FF1FD44A0000E04A0000EC4A0000B7
:40064000FEE700BFF0B40022174611E050F82760F3B226F0FF0608E001EB420511F812406D78A5550132013BDBB2002BF4D10137232FEBD9F0BC7047064B1B78DBB203F0DD
:400680000701054A11701B09013213704422034B1A707047CF0100496E5800407658004008B50A46002101F068FB08BD38B50024314B1C80582202331A70332202331A8099
:4006C00018232E4A13704FF49C71023211800232137040F23F622A490A8002310B7002310A80284A137047F22F52274B1A80192502331D70022203F26A231A7008224FF069
:4007000040231A70032103F5007319701F4B1B78DBB21F490B701F4B1A8041F25122023B1A800CE01C4B1B7803F0010343EA440404F003044FF4F07000F05EFE013D0DB18E
:40074000032CEFD115B90320FFF77AFF134B4FF480721A8007221A70002211490A704820023108701A700222033B1A700D4A137843F03F03137038BD8040004086400040F6
:400780008C400040924000409440004008010049A146004022420040254200400440004006400040A243004008B501F0DBFA08BD38B572B6384A137843F0040313700024C9
:4007C0000CE0364D630019194A0011462A44084691882858FFF764FF0134E4B2082CF0D900240CE02D48A20011194B000344B3F84020D96B986BFFF7D7FF0134E4B2012CE5
:40080000F0D927494FF09040FFF71CFF254A137843F0020313701032137843F002031370214C237843F040032370A2F58632513A137843F0100313700A221C491C48FFF7F8
:40084000B3FF0A221B491C48FFF7AEFF08221B491B48FFF7A9FF08221A491B48FFF7A4FF08221A491A48FFF79FFF1A4A137843F008031370184D61232B70FFF717FF8123B0
:400880002B700122154B1A70FFF7F6FE0E2221461348FFF789FF38BDE8460040104B00009000004803500140A0430040F809004800510040040A0048C0510040100A004806
:4008C00012510040180A004822510040200A004832510040224300400048004004000840B043004008B501F011FA03680C2B00D1FEE7FEE708B5094B1A681044084BC31A4A
:40090000802B02DC054B186005E001F0FFF90C2303604FF0FF32104608BD00BFCC80FF1F5083FF1F08B5104E104D16E029686B68AC68002204E051F8040B43F8040B04329D
:40094000A242F8D1E868002203E0002143F8041B04328242F9D11035013E002EE6D101F0DBF9FFF78FFBFEE701000000684E000008B5104A104B1A60104A136843F4007381
:40098000136000230AE0032B03D80D4A52F8231000E00C490C4A42F8231001332F2BF2D90A4B1A780A4B1A70074A0A4B1A60FFF7FFFE08BD0004FA050CED00E014ED00E02E
:4009C00000000000E50800000080FF1FBC760040C080FF1F08ED00E001BE704710B5044605E0084B186800F007FDA4F50044B4F5004FF6D8034B586800FB04F000F0FCFC0E
:400A000010BD00BFD080FF1F08B5034B1B7A00FB03F000F0F1FC08BDD080FF1F70B504460E46074B1D681F2802D90020FFF7D4FF04F01F04103455F8240045F8246070BDBF
:400A400008ED00E038B504460D46072902D90020FFF7C2FF1F2C02D90020FFF7BDFF04F01F0000F1604000F564406D01EDB2057038BD00BF014B1B681865704708ED00E0F2
:400A80004001C0B2014B1870704700BF04E400E01022014B1A60704700E100E01022014B1A60704780E100E010B50446FFF7F6FF2046FFF7DFFF0720FFF7E2FFFFF7E8FF02
:400AC00010BD00BF08B511490020FFF7A7FF07210020FFF7B7FF00220D4B1A7072220D4B1A702022013B1A700B490120FFF796FF07210120FFF7A6FF0622084B1A704722CF
:400B000010331A70022252331A7008BDE50C0000E881FF1F846400407D0D00002364004010B500F071FC04460D4A137843F020031370013A137843F010031370094A0123D2
:400B4000136009490B7843F010030B70022307490B60136000F03EF9204600F059FC10BD9464004000E100E09564004080E200E008B5054B5B7823B9FFF7A4FF0122024B41
:400B80005A70FFF7CDFF08BDE881FF1F0122134B1A60134A9378DBB2D178C9B2127912F0FF0F01D18B4211D00E4AD05CC0B20133DBB2632B00D90023094A9370137913F068
:400BC000FF0F06D00022064B1A7102E0064B1878C0B20122054B1A60704700BF80E100E0E881FF1F8082FF1F4764004000E100E00122144B1A60144B9A78D2B2DB78DBB216
:400C00009A4206D1104B1B7913F0FF0F15D0642014E00D4B9A78D2B2DB78DBB29A4205D2094AD3789078181AC0B207E0064AD3789078181A6430C0B200E000200122034BA6
:400C40001A60704780E100E0E881FF1F00E100E0164BD9799B79DBB2994205D25A1E914214BF0022012204E0CA1A632A14BF00220122002AECD1994207D10D4B1B7813F05C
:400C8000040F02D10B4B18707047632900D90021094B58540131054BD971054B1B7813F0020F02D00222054B1A607047E881FF1F6564004042640040E482FF1F00E200E03D
:400CC00038B5074B5B782BB938BDFFF7C1FF0134A4B201E005460024285D0028F5D138BDE881FF1F1D4B1B78DBB213F01E0F05D01B4803F01E0201780A43027003F0200338
:400D000003F0FF0233B3174B1978C9B2164B1B78DBB21648C154164B1B7813F0FF0F02D00121144B197010490B780133DBB20B700B78DBB2632B02D900210B4B19700A4BB0
:400D40001978C9B20C4B1B78DBB2994202D10121074B1970002AC5D1704700BF63640040E881FF1F47640040EB81FF1F8082FF1FEC81FF1FED81FF1FEA81FF1F13E0104BFE
:400D80001B78DBB2632B02D900220D4B1A700C4A1378DBB20B49CB5CDBB20B490B7013780133DBB21370064B1B78DBB2074A1278934204D0064B1B7813F0040FDFD070473D
:400DC000EE81FF1FE482FF1F42640040EF81FF1F65640040054A137843F0040313701032137843F004031370704700BFA2430040024A137843F08003137070477A640040C4
:400E0000014B1870704700BF0A640040014B1870704700BF4A640040014B1870704700BF2A640040014B1870704700BF3A640040014B1870704700BF8A640040014B1878EE
:400E4000704700BF6A640040014B1878704700BF5A64004008B501E0FFF7F6FFFFF7EEFF10F0100FF8D108BD10B5134A137803F0C00343F009031370104C237843F0010332
:400E80002370FF20FFF7BCFFFF20FFF7BFFF7F20FFF7C2FF3F20FFF7C5FF0020FFF7C8FF00F0B2FA237843F01003237000F0B0FAFFF7D0FF10BD00BF7A6400409A64004059
:400EC00008B5054B1B7823B9FFF7CEFF0122024B1A70FFF78DFF08BDF181FF1F024A137843F080031370704774650040014B1870704700BF04650040014B1870704700BFC5
:400F000044650040014B1870704700BF24650040014B1870704700BF34650040014B1870704700BF84650040014B1878704700BF64650040014B1878704700BF5465004079
:400F400008B501E0FFF7F6FFFFF7EEFF10F0100FF8D108BD10B5134A137803F0C00343F009031370104C237843F001032370FF20FFF7BCFFFF20FFF7BFFF7F20FFF7C2FF79
:400F80003F20FFF7C5FF0020FFF7C8FF00F03CFA237843F01003237000F03AFAFFF7D0FF10BD00BF746500409465004008B5054B1B7823B9FFF7CEFF0122024B1A70FFF7AB
:400FC0008DFF08BDF281FF1F7222084B1A702022A3F580731A700622A1331A70472210331A700022AC3B1A70704700BF8665004010B500F009FA04460A4A137843F0200320
:401000001370A2F58072137843F0100313700532137843F01003137000F076F8204600F0F7F910BD9665004008B5054B1B7823B9FFF7CAFF0122024B1A70FFF7D9FF08BD51
:40104000F381FF1F014B1878704700BF46650040044B1B7813F0200F01D0012070470020704700BF66640040024B1B780BB1024B18707047F381FF1F45640040034B1B78C0
:4010800013F0040FFAD1024B187070476B6400404564004038B5074B1B782BB938BDFFF7EDFF0134A4B201E005460024285D0028F5D138BDF381FF1F014B1B685865704726
:4010C00008ED00E04001C0B2014B1870704700BF05E400E02022014B1A60704700E100E02022014B1A60704780E100E010B50446FFF7F6FF2046FFF7DFFF0720FFF7E2FFA3
:40110000FFF7E8FF10BD00BF054A137843F0020313701032137843F002031370704700BFA2430040054A137843F0010313701032137843F001031370704700BFA2430040D8
:40114000044A137803F0F703C00000F0080018431070704720510040014B1B689864704708ED00E04001C0B2014B1870704700BF02E400E00422014B1A60704700E100E030
:401180000422014B1A60704780E100E010B50446FFF7F6FF2046FFF7DFFF0720FFF7E2FFFFF7E8FF10BD00BF0422014B1A60704780E200E0024A137843F080031370704704
:4011C0007D640040014B1870704700BF8D640040014B1878704700BF6D640040014B1880704700BF18680040024B1B78024B188880B270470C64004098680040014B188844
:4012000080B2704798680040014B1880704700BF58680040014B1880704700BF7868004008B501E0FFF7EAFFFFF7D2FF10F0400FF8D108BD08B5134A137803F0F80313707A
:40124000137803F0FC0343F008031370FFF7E8FF4FF6DC70FFF7D8FF0020FFF7BFFF1020FFF7B0FFFFF7B4FF4FF6DC70FFF7D2FF00F0CAF8044A137843F01003137000F007
:40128000C7F808BD7D6400409D64004008B5054B1B7823B9FFF7CEFF0122024B1A70FFF789FF08BDF581FF1F014B1870704700BF7B640040084A137843F0010313701032F6
:4012C000137843F00103137002F64D32137843F001031370704700BFA3430040014B1870704700BF034F0040014B1880704700BF044F0040014B1880704700BF064F004099
:4013000008B5154A137803F0010313700232137803F0FC031370114B1A7802F0CF021A701A7842F030021A701A7802F0F0021A701A7842F00F021A70094A137843F0010329
:4013400013700920FFF7D0FF0920FFF7D3FF0820FFF7C4FF08BD00BF004F00400B4F0040014F004008B5054B1B7823B9FFF7C8FF0122024B1A70FFF79DFF08BDF681FF1FCE
:40138000014B1B68D864704708ED00E04001C0B2014B1870704700BF03E400E00822014B1A60704700E100E00822014B1A60704780E100E010B50446FFF7F6FF2046FFF72C
:4013C000DFFF0720FFF7E2FFFFF7E8FF10BD00BF0822014B1A60704780E200E0054A137843F0200313701032137843F020031370704700BFA24300400230800803D000BF7F
:4014000001380046FCD17047EFF3108072B6704780F31088704700BF81F0004102E000BF83F0004330B54FEA41044FEA430594EA050F08BF90EA020F1FBF54EA000C55EA9F
:40144000020C7FEA645C7FEA655C00F0E2804FEA5454D4EB5555B8BF6D420CDD2C4480EA020281EA030382EA000083EA010180EA020281EA0303362D88BF30BD11F0004F70
:401480004FEA01314FF4801C4CEA113102D0404261EB410113F0004F4FEA03334CEA133302D0524263EB430394EA050F00F0A780A4F10104D5F1200E0DDB02FA0EFC22FA10
:4014C00005F2801841F1000103FA0EF2801843FA05F359410EE0A5F120050EF1200E012A03FA0EFC28BF4CF0020C43FA05F3C01851EBE37101F0004507D54FF0000EDCF1C4
:40150000000C7EEB00006EEB0101B1F5801F1BD3B1F5001F0CD349085FEA30004FEA3C0C04F101044FEA445212F5800F80F09A80BCF1004F08BF5FEA500C50F1000041EBFB
:40154000045141EA050130BD5FEA4C0C404141EB010111F4801FA4F10104E9D191F0000F04BF01460020B1FA81F308BF2033A3F10B03B3F120020CDA0C3208DD02F1140C39
:40158000C2F10C0201FA0CF021FA02F10CE002F11402D8BFC2F1200C01FA02F120FA0CFCDCBF41EA0C019040E41AA2BF01EB0451294330BD6FEA04041F3C1CDA0C340EDC72
:4015C00004F11404C4F1200220FA04F001FA02F340EA030021FA04F345EA030130BDC4F10C04C4F1200220FA02F001FA04F340EA0300294630BD21FA04F0294630BD94F098
:40160000000F83F4801306BF81F480110134013D4EE77FEA645C18BF7FEA655C29D094EA050F08BF90EA020F05D054EA000C04BF1946104630BD91EA030F1EBF00210020E8
:4016400030BD5FEA545C05D14000494128BF41F0004130BD14F580043CBF01F5801130BD01F0004545F0FE4141F470014FF0000030BD7FEA645C1ABF194610467FEA655C45
:401680001CBF0B46024650EA013406BF52EA033591EA030F41F4002130BD00BF90F0000F04BF0021704730B54FF4806404F132044FF000054FF0000150E700BF90F0000F15
:4016C00004BF0021704730B54FF4806404F1320410F0004548BF40424FF000013EE700BF42004FEAE2014FEA31014FEA02701FBF12F07F4393F07F4F81F06051704792F064
:40170000000F14BF93F07F4F704730B54FF4607401F0004521F0004120E700BF50EA010208BF704730B54FF000050AE050EA010208BF704730B511F0004502D5404261EB1C
:4017400041014FF4806404F132045FEA915C3FF4DCAE4FF003025FEADC0C18BF03325FEADC0C18BF033202EBDC02C2F1200300FA03FC20FA02F001FA03FE40EA0E0021FA2F
:4017800002F11444C1E600BF70B54FF0FF0C4CF4E06C1CEA11541DBF1CEA135594EA0C0F95EA0C0F00F0DEF82C4481EA030621EA4C5123EA4C5350EA013518BF52EA0335DC
:4017C00041F4801143F4801338D0A0FB02CE4FF00005E1FB02E506F00042E0FB03E54FF00006E1FB03569CF0000F18BF4EF0010EA4F1FF04B6F5007F64F5407404D25FEABD
:401800004E0E6D4146EB060642EAC62141EA55514FEAC52040EA5E504FEACE2EB4F1FD0C88BFBCF5E06F1ED8BEF1004F08BF5FEA500E50F1000041EB045170BD06F00046D0
:4018400046EA010140EA020081EA0301B4EB5C04C2BFD4EB0C0541EA045170BD41F480114FF0000E013C00F3AB8014F1360FDEBF002001F0004170BDC4F10004203C35DAA6
:401880000C341BDC04F11404C4F1200500FA05F320FA04F001FA05F240EA020001F0004221F0004110EBD37021FA04F642EB06015EEA430E08BF20EAD37070BDC4F10C0441
:4018C000C4F1200500FA04F320FA05F001FA04F240EA020001F0004110EBD37041F100015EEA430E08BF20EAD37070BDC4F1200500FA05F24EEA020E20FA04F301FA05F25E
:4019000043EA020321FA04F001F0004121FA04F220EA020000EBD3705EEA430E08BF20EAD37070BD94F0000F0FD101F00046400041EB010111F4801F08BF013CF7D041EA5D
:40194000060195F0000F18BF704703F00046520043EB030313F4801F08BF013DF7D043EA0603704794EA0C0F0CEA135518BF95EA0C0F0CD050EA410618BF52EA4306D1D15D
:4019800081EA030101F000414FF0000070BD50EA410606BF1046194652EA430619D094EA0C0F02D150EA013613D195EA0C0F05D152EA03361CBF104619460AD181EA030131
:4019C00001F0004141F0FE4141F470014FF0000070BD41F0FE4141F4780170BD70B54FF0FF0C4CF4E06C1CEA11541DBF1CEA135594EA0C0F95EA0C0F00F0A7F8A4EB0504DE
:401A000081EA030E52EA03354FEA013100F088804FEA03334FF0805545EA131343EA12634FEA022245EA111545EA10654FEA00260EF000419D4208BF964244F1FD0404F538
:401A4000407402D25B084FEA3202B61A65EB03055B084FEA32024FF480104FF4002CB6EB020E75EB030E22BFB61A754640EA0C005B084FEA3202B6EB020E75EB030E22BF3D
:401A8000B61A754640EA5C005B084FEA3202B6EB020E75EB030E22BFB61A754640EA9C005B084FEA3202B6EB020E75EB030E22BFB61A754640EADC0055EA060E18D04FEA19
:401AC000051545EA16754FEA06164FEAC30343EA52734FEAC2025FEA1C1CC0D111F4801F0BD141EA00014FF000004FF0004CB6E711F4801F04BF01430020B4F1FD0C88BFEA
:401B0000BCF5E06F3FF6AFAEB5EB030C04BFB6EB020C5FEA500C50F1000041EB045170BD0EF0004E4EEA113114EB5C04C2BFD4EB0C0541EA045170BD41F480114FF0000E28
:401B4000013C90E645EA060E8DE60CEA135594EA0C0F08BF95EA0C0F3FF43BAF94EA0C0F0AD150EA01347FF434AF95EA0C0F7FF425AF104619462CE795EA0C0F06D152EAF8
:401B800003353FF4FDAE1046194622E750EA410618BF52EA43067FF4C5AE50EA41047FF40DAF52EA43057FF4EBAE12E74FF0FF3C06E000BF4FF0010C02E000BF4FF0010CFF
:401BC0004DF804CD4FEA410C7FEA6C5C4FEA430C18BF7FEA6C5C1BD001B050EA410C0CBF52EA430C91EA030F02BF90EA020F0020704710F1000F91EA030F58BF994208BF09
:401C000090422CBFD8176FEAE37040F0010070474FEA410C7FEA6C5C02D150EA013C07D14FEA430C7FEA6C5CD6D152EA033CD3D05DF8040B704700BF8446104662468C4699
:401C40001946634600E000BF01B5FFF7B7FF002848BF10F1000F01BD4DF808EDFFF7F4FF0CBF012000205DF808FB00BF4DF808EDFFF7EAFF34BF012000205DF808FB00BFB4
:401C80004DF808EDFFF7E0FF94BF012000205DF808FB00BF4DF808EDFFF7CEFF94BF012000205DF808FB00BF4DF808EDFFF7C4FF34BF012000205DF808FB00BF4FEA410208
:401CC00012F5001215D211D56FF47873B3EB625212D94FEAC12343F0004343EA505311F0004F23FA02F018BF404270474FF00000704750EA013005D111F0004008BF6FF003
:401D0000004070474FF00000704700BF014B1868704700BF4081FF1F0E4B70B51E460E4C0025E41AA410A54204D056F8253098470135F8E703F086F8084B094C1E46E41AF6
:401D4000A4100025A54204D056F8253098470135F8E770BD504E0000504E0000504E0000584E000010B5431E0A44914204D011F8014B03F8014FF8E710BD034602449342C0
:401D800002D003F8011BFAE770472DE9F04788B0149F002B1E461299B8BF03F1004327F02007B6BF1E4600232D23462F1446109DDDF84CA00B7003D0452F03D1013501E00E
:401DC000032300E0022307AA049206AA03928DE828042246334600F073FD472F804602D1119BDB0728D5462F08EB050911D198F80030302B0AD10022002320463146FFF74A
:401E00002BFF18B9C5F10105CAF80050DAF8003099440022002320463146FFF71DFF08B9302202E0CDF81C9006E0079B994503D9591C07911A70F8E74046079B159AC8EB1E
:401E40000303136008B0BDE8F087034673B50029B8BF494203F8022BB4BF2D222B22092942701ADD0DF1070216460A2591FBF5F405FB1411092C01F1300102F8011D214664
:401E8000F4DC3031541E02F8011CB4421A460AD214F8012B03F8012BF7E71A463024214402F8024B5970101A02B070BD2DE9F04F91B00C46DDF8688016461F46054601F025
:401EC00097FA03681846099300F052FC00230E93D8F800300A90073323F0070303F1080294F81890D4F800B0C8F80020D3E90023C4E91223D4F84CA0D4F848802AF0004301
:401F00000B934FF0FF32A74B40460B9902F038FCA0B94FF0FF32A34B40460B99FFF7B0FE60B90022002340465146FFF79FFE10B12D2384F843309C4B9C4A0AE042465346E6
:401F40004046514602F01CFC002800F09281984B984AB9F1470F8CBF90469846032323612BF0040323604FF0000A3DE0B9F1670F00F08A81B9F1470F00F08681236001936D
:401F8000636800210DF13302059002920093424653460691CDF81090CDF80CE02846FFF7F4FE09F0DF03472B804600F08481B9F1650F0D9900F28D8101394A4604F1500047
:401FC0000D91FFF742FF0E9A82468318012A236100F37C812268D10700F178819DF8333013B12D2384F84330009733460FAA2146284600F09FF9013002D14FF0FF3096E10C
:4020000023685A0501D4236965E0B9F1650F40F2D580D4E9120100220023FFF71DFE78B30123654A31462846B8470130E5D00E9B0D9A9A420BDB2368D80708D423689B07F8
:4020400040F111814FF0000804F1190906E10A9B099A31462846B8470130CED04FF0000804F11A090E9B013B9845E7DA01234A4631462846B8470130BFD008F10108F1E749
:402080000D9B002B29DC01234B4A31462846B8470130B2D00D9B23B90E9B13B92368D907CCD50A9B099A31462846B8470130A4D04FF0000904F11A0A0D9B5B42994509DABB
:4020C0000123524631462846B847013095D009F10109F1E70E9B4246A7E00E9AA36D9A42A8BF1A46002A914606DC4FF0000A29EAE97904F11A0B11E0134631464246284649
:40210000B8470130F1D178E701235A4631462846B84701303FF471AF0AF1010AA36DC9EB03029245F0DB08EB03090D9A0E9B9A420FDB2368DA070CD40E9B0D9A9844C9EB70
:4021400008089B1A9845A8BF9846B8F1000F08DC0FE00A9B099A31462846B8470130EBD14BE743464A4631462846B84701303FF444AF4FF0000928EAE87804F11A0A09E092
:402180000123524631462846B84701303FF435AF09F101090D9A0E9B9B1AC8EB03039945EEDB4BE7FFFFEF7F5E4B0000624B0000664B00006A4B0000DE4C00000E9A012A77
:4021C00001DCDB0738D50123424631462846B84701303FF412AF0A9B099A31462846B84701303FF40AAFD4E9120100220023FFF733FD20B14FF0000804F11A090EE00E9B13
:4022000008F10102013B19E001234A4631462846B84701303FF4F1AE08F101080E9B013B9845F1DB534604F1500231462846B84701307FF403AFE0E64246012331462846D1
:40224000B8470130EED1D8E601234A4631462846B84701303FF4D1AE08F10108E3680F9A9B1A9845F0DBE0680F9B9842B8BF18465DE062680EA8531C0DF1340E4BF48063B4
:402280007FF474AE062201E012B90122626075E6002106910DF133018DE80C00236005904246CDF81090CDF80CE0029153462846FFF76BFD80460D9BD81C02DB626893427E
:4022C0001DDDA9F102095FFA89F970E60133236184E6B9F1660F14D10029636807DD216113B92268D2071DD501330B4419E013B92268D00701D5023313E0012311E04FF072
:4023000067090D9B0E9A934205DB22682361D10708D5013305E0002BD4BFC3F102030123134423610D9B4FF0000AA36556E611B0BDE8F08F2DE9F04791461F460A698B68CD
:4023400006469342B8BF1346C9F8003091F843200C46DDF8208012B10133C9F800302368990642BFD9F800300233C9F80030256815F0060510D104F1190A07E00123524655
:4023800039463046C04701301AD00135E368D9F800209B1A9D42F1DB94F843302268003318BF012392060FD5E118302081F843005A1C94F845102244023382F8431003E05A
:4023C0004FF0FF30BDE8F08704F1430239463046C0470130F4D02268D9F80050E36802F00602042A08BF5D1B2269A3680CBF25EAE57500259342C4BF9B1AED184FF0000982
:402400001A344D4509D00123224639463046C0470130D5D009F10109F3E70020BDE8F0872DE9F04317460A7E85B06E2A984606460C460C9B01F1430E00F0AE8011D8632A76
:4024400022D009D8002A00F0BB80582A40F0CA8081F84520834955E0642A1ED0692A1CD0C0E0732A00F0B08009D86F2A2ED0702A40F0B8800A6842F020020A603EE0752A9A
:4024800024D0782A3AD0ADE01A6801F14205111D1960136884F84230A8E021681A6811F0800F02D0111D196008E011F0400F02F10401196002D0B2F9003000E01368002BAC
:4024C0003CDA2D225B4284F8432037E021681A6811F0800F02D0111D196007E011F0400F02F10401196001D0138800E01368227E5C496F2A14BF0A2208221BE078225A4922
:4025000084F845202268186812F0800F00F104051D6003D1550601D5038800E00368D00744BF42F0200222601BB9226822F0200222601022002084F8430001E049490A2259
:402540006568002DA56008DB206820F0040020602BB9002D7DD175460CE0002B79D07546B3FBF2F002FB1033CB5C05F8013D03460028F5D1082A0BD12368DA0708D52369DC
:4025800062689A42DEBF302305F8013C05F1FF35C5EB0E0323612EE008681A6810F0800F496903D0101D1860136808E010F0400F02F104001860136801D0198000E01960C4
:4025C00000232361754616E01A68111D1960156800216268284600F017FF08B1401B6060636804E004F1420584F8422001232361002384F84330CDF800803B4603AA21464D
:402600003046FFF797FE013002D14FF0FF3026E023692A4639463046C0470130F5D023689B0710D5002504F1190907E001234A4639463046C0470130E7D00135E368039A48
:402640009B1A9D42F2DBE068039B9842B8BF184605E00B7804F1420584F842308AE705B0BDE8F0836E4B00007F4B00000CB430B5164B0C1E9DB01D6804DA8B232B604FF0B9
:40268000FF301EE04FF40273ADF814300CBF234604F1FF33049307934FF6FF7302900690ADF81630209A21AB02A92846019301F0A1FA431CBCBF8B232B6014B1029B0022A0
:4026C0001A701DB0BDE8304002B070474081FF1F0EB400B54FF402719CB0ADF814106FF00041049107914FF6FF711DAB02900690084853F8042BADF81610006802A9019336
:4027000001F078FA029B00221A701CB05DF804EB03B070474081FF1F0EB430B59CB01FAC4FF4017254F8045BADF814200290069000F01EF80B4B03900B9300230F9314937B
:402740004FF6FF7307900848ADF816302A46234602A90068019401F09DFB1CB0BDE8304003B070476D2700004081FF1F00207047034613F8012B002AFBD1181A0138704799
:4027800030B582B1451E013915F8013F11F8014FA34206D1EC431444E04201D0002BF3D11C46181B30BD104630BD2DE9F74F03690C6980469C427FDC013C01F114074FEA15
:4027C000840E00F1140606EB0E0357F82450019356F824300135B3FBF5F507EB0E09C5B34FF0000A3846B446D34650F8043B9AB205FB02A21B0C4FEA124A05FB03A392B2FB
:40280000C2EB0B0BBCF800204FEA134A5A441FFA83FBDCF800308145CBEB134303EB224392B242EA03424FEA234B4CF8042BDCD256F80E306BB9019B043B9E421A4602D3F0
:40284000C8F8104005E01268043B002AF8D1013CF3E7404600F0F3FF00282BDB304601354FF0000E57F8042B036891B2C1EB0E0E120C99B27144C2EB134303EB214389B26F
:402880004FEA234EB94541EA034340F8043BE9D256F8242006EB840362B9043B9E421A4602D3C8F8104005E01268043B002AF8D1013CF3E7284600E0002003B0BDE8F08F57
:4028C0002DE9F04F456A95B08246219CCDE9022345B9102000F090FDCAF82400456085600560C560DAF82430196859B15A68012393404A608B60504600F0C9FDDAF8243019
:4029000000221A60039BA04A002BBDBF01232360039B0023BCBF23F000430393DDF80C80A8BF236028F000431B0D1B0593421DD142F20F73209A1360029B43B9934A944B14
:40294000C8F31300002814BF1846104600E09048229B002B00F04685C37813B100F1080300E0C31C229A136000F03CBDDDE902450022002320462946FFF76EF9074658B1D3
:40298000209A01231360229B002B00F01E8581481860013800F026BD12AB019313AB009322462B46504600F0C5FFC8F30A56049056B1C5F3130343F07F51204641F44011C6
:4029C000A6F2FF3611971DE0139B129E1E4406F23243202B0ADD029A06F21240C3F1400322FA00F008FA03F3184304E0C3F12000029B03FA00F0FEF751FE0123A1F1F87125
:402A0000013E11930022644BFEF70AFD58A3D3E90023FEF7B9FE58A3D3E90023FEF702FD044630460D46FEF749FE55A3D3E90023FEF7AAFE02460B4620462946FEF7F2FC7E
:402A400004460D46FFF73AF900228346002320462946FFF70BF958B15846FEF72FFE02460B4620462946FFF7F7F808B90BF1FF3BBBF1160F0DD8DDE90223484901EBCB01B6
:402A8000D1E90001FFF710F930B10BF1FF3B002300E00123109300E01090129B9E1B731E079343BFC3F10008002307934FF00008BBF1000F06DB079BCDF82CB05B44079390
:402AC000002705E00023CBEB0808CBF100070B931E9B092B28D8052BC4BF043B1E931E9BC8BF0025A3F10203D8BF0125032B20D8DFE803F0060E0204012302E0012308E029
:402B000000230A931F9B002B1DDD9946059321E000230A931F9B0BEB030909F10103012B0593B8BF012315E0012500231E930A9501E001230A934FF0FF390022CDF8149073
:402B400012231F9206E04FF001094B46CDF81490CDF87C90DAF8244000226260042101F114029A421CD86268490001326260F6E761436F63A787D23FB3C8608B288AC63FA7
:402B8000FB799F501344D33F0000F07F904B0000994B0000DF4C00000000F83FA84B00006168504600F03EFCDAF8243020601B680693059B0E2B00F25B81002D00F05881DE
:402BC000DDE90234BBF1000FCDE90E3430DD9F4A0BF00F034FEA2B1502EBC303E80618CBCDE908340CD5DDE90E01994B05F00F05D3E90823FEF7F2FE0324CDE9020100E005
:402C00000224934E6DB1E90708D5DDE90801D6E90023FEF7B9FDCDE9080101346D100836F0E7DDE90823DDE90201FEF7D7FE20E0CBF1000505B3DDE90E01844B05F00F0219
:402C400003EBC203D3E90023FEF79EFDCDE902017F4E2D110023022455B1EA0705D5D6E90023FEF791FD013401236D100836F3E71BB1CDE9020100E00224109BE3B1DDE971
:402C800002560022734B28463146FEF7EFFF98B1059B8BB1B9F1000F40F3E6800BF1FF330893314600226C4B2846FEF76DFD0134CDE902014E4602E0059ECDF820B02046B5
:402CC000FEF7FCFCDDE90223FEF75EFD634B0022FEF7A8FBA1F1507304460C931D46D6B9DDE9020100225E4BFEF79AFB22460C9BCDE90201FEF7D8FF002840F03F820C99A4
:402D0000224601F10043DDE90201FEF7AFFF002840F02B82A8E00A9A4C4B711E002A49D003EBC103D3E9002300204E49FEF756FE22462B46FEF774FBCDE90C01069CDDE9F7
:402D40000201FEF7BBFF0546FEF7B8FC02460B46DDE90201FEF764FBDDE90C23303504F8015BCDE90201FEF781FF002840F01D83DDE9022300203749FEF752FBDDE90C235D
:402D8000FEF774FF002840F0D180069BE31AB3426ADADDE90C0100222F4BFEF7F5FC0022CDE90C01DDE902012B4BFEF7EDFCCDE90201C4E703EBC1012246D1E900012B462C
:402DC000FEF7E2FC069BCDE90C011D469C19DDE90201FEF773FF0646FEF770FC02460B46DDE90201FEF71CFB303605F8016BAC42CDE902014FF0000222D11A4BDDE90C0157
:402E0000FEF710FB02460B46DDE90201FEF74CFF002840F08B80DDE90C2300201149FEF7FFFA02460B46DDE90201FEF71FFFD8B114F8013C621E302B40F0B7821446F7E76D
:402E4000054BFEF7A1FCCDE90201C0E7A84B0000804C00000000F03F0000244000001C40000014400000E03FDDE90E34CDE90234139B002B7CDBBBF10E0F79DCAB4B03EBC9
:402E8000CB03D3E900671F9B002B14DA059B002B11DC40F06C810022A54B30463946FEF773FCDDE90223FEF7F5FE059D2E46002840F05F8165E1069CDDE9028932463B46BB
:402EC00040464946FEF78AFDFEF7F8FE0546FEF7F5FB32463B46FEF757FC0B46024649464046FEF79DFA05F1300E069B04F801EBC3EB040E059B73452DD102460B46FEF74A
:402F000091FA8046894602460B4630463946FEF7ADFE78B942464B4630463946FEF79CFE002800F04482EB0704D440E2DDF820B000E01C4614F8012C631E392A07D1069A2F
:402F40009A42F6D1069930220BF1010B0A701A7801321A702BE20022764BFEF715FC0022002380468946FEF777FE0028A6D01EE20A9A002A2BD01E9A012A0ADC119A12B114
:402F800003F2334302E0129BC3F136033D46444613E0059B5D1EAF42BFBF0B9BEA1B9B180B93059BB6BF2F467D1B0025002BA7BF4446059BC3EB08040023079A01211A44A4
:402FC00050469844079200F001FB064602E03D4644460A9E5CB1079B002B08DDA342A8BF2346079AC3EB0808E41AD31A0793002F1DDD0A9BABB18DB131462A46504600F0CA
:403000007FFB049A01460646504600F0E8FA04990890504600F03BFA089B04937A1B06D000E03A460499504600F06AFB04900121504600F0CBFA0B9B05465BB31A46014659
:40304000504600F05DFB1E9B0546012B18DC029B83B9039BC3F3130373B9039B23F000473F0D3F054FB1079B08F1010801330793012702E0002700E0029F0B9B73B100E089
:4030800000272B6905EB8303186900F052FAC0F1200004E01E9B012BD9DD0B9F0120079B184410F01F0008D0C0F12003042B02DDC0F11C0002E006D018461C30079B80449B
:4030C000034404440793B8F1000F05DD42460499504600F063FB0490079B002B05DD29461A46504600F05AFB0546109B23B32946049800F0A4FB00281EDA00230A220499A5
:40310000504600F0DBF90A9B0BF1FF3B0490002B00F05F81314600230A22504600F0CEF9B9F1000F06463FDC3BE000BFA84B00000000144000002440059B002B2BDC1E9B88
:40314000022B28DDDDF81490B9F1000F11D129464B460522504600F0B1F901460546049800F06DFB00280CDC03E0354600E000252E461F9B069C6FEA030B09E03546DDF849
:4031800020B0069B069A5C1C312313700BF1010B05960026F7E00A9BDDF8149023B9069CB2E01E9B022BCFDC002C05DD31462246504600F0F3FA06469FB17168504600F0F5
:4031C00031F90446326906F10C01023292000C30FEF7C8FD01222146504600F0DFFA059000E00596029B069F03F00103079329460498FFF7DAFA3146044600F130080498D9
:4032000000F01DFB059A02902946504600F033FBC36802463BB901460A90049800F00FFB0A9A034600E00123114650460A9300F02EF90A9B53B91E9A42B9079A32B9B8F129
:40324000390F2AD0029B002B1CDC1DE0029A002A04DB1BD11E9ACAB9079ABAB9002B13DD01220499504600F099FA2946049000F0E6FA002803DC07D118F0010F04D0B8F134
:40328000390F0AD004F131087C1C0CE0002B07F101040BDDB8F1390F03D139233B70013756E008F1010887F800806CE0069B2746E31A4B4504F8018C3BD000230A22049988
:4032C000504600F0FBF8059B04909E424FF00A024FF000033146504604D100F0EFF80646059084E700F0EAF8002306460A220599504600F0E3F8059079E700230A22049962
:40330000504600F0DBF8049029460498FFF74DFA069B00F1300804F8018BE31A4B45ECDB069B0596B9F1010FACBF4B4401331F46002601220499504600F030FA2946049090
:4033400000F07DFA002803DC15D118F0010F12D03C4614F8013C621E392B09D1069B934204D10BF1010B3123069A02E01446F0E70133137007E03C4614F8013C621E302BD8
:4033800001D11446F8E72946504600F080F8059B6BB12EB19E4203D03146504600F077F80599504600F073F801E0DDF820B00499504600F06CF80023209A23700BF10103CF
:4033C0001360229B1BB11C6001E008480AE0069808E0B9F1000F3FF7E2AE1E9B022B7FF7DEAEB1E615B0BDE8F08F00BFDE4C0000004870474481FF1F024B0146186800F0FE
:4034000041BB00BF4081FF1F10B5C9B202449042034605D01C7801308C42F8D1184610BD002010BD70B5456A04460E463DB91020FFF7E2FF6062456085600560C560656AF4
:40344000EB6843B1636ADB6853F8260078B1026843F8262017E021220421204600F0B8FA636AE860DB68002BECD1002070BD012101FA06F56A1D9200204600F0A9FA00282A
:40348000F3D04660856000230361C36070BD70B5446A06460D463CB91020FFF7ADFF7062446084600460C4603DB1736A6A68DB6853F82210296043F8225070BD2DE9F041C5
:4034C00006460C460D691F4601F1140E0023DEF80000013381B202FB0171000C0F0C02FB007089B201EB00419D424FEA10474EF8041BECDCD7B1A3689D4212DB616830463A
:403500000131FFF78FFF8046226904F10C01023292000C30FEF726FC21463046FFF7B7FF444604EB850301355F6125612046BDE8F081030C1B0413B90004102300E00023B3
:4035400010F07F4F04BF0002083310F0704F04BF0001043310F0404F04BF80000233002803DB420003D5581C70471846704720207047036813F007020BD0D90722D49A079C
:403580004BBF5B089B08036003604CBF01200220704799B209B91B0C102213F0FF0F04BF1B0A0832190704BF1B090432990704BF9B080232D90702D45B0805D0013203609C
:4035C00010467047002070472020704710B50C460121FFF727FF01224461026110BD2DE9F74F14460A69236988469A42BEBF0B46A0461C46D8F81070D4F81090D8F808306A
:40360000D8F8041007EB09069E42C8BF0131FFF709FF00F114052B4605EB860C0022634502D243F8042BFAE704F1140208F1140102EB890301EB87070093009B0192934286
:4036400057D9B2F800B0BBF1000F23D08946AE464FF0000859F8044BBEF800A0A3B20BFB03A34FEA144ADEF8004043444FEA14480BFB0A84F24604EB13449BB243EA044375
:403680004F454FEA14484AF8043B01D9D646E1E7CEF80480019B0432B3F802A0BAF1000F21D02C4689462B684FF00008B9F800E0B4F802B09BB20AFB0EBEA346F04443EA1C
:4036C00008434BF8043B59F8043BB4F804E01B0C0AFB03E34F4503EB18434FEA134801D95C46E3E763600435A7E75CF8043D13B9013E002EF9DC066103B0BDE8F08F0000A9
:403700002DE9F843154612F0030206460F4607D0214C013A002354F82220FFF7CFFE0746AD1036D0746A3CB91020FFF765FE7062446084600460C460D6F82480D8F808406A
:403740004CB940F271213046FFF740FF04460023C8F8080003604FF00008EB070AD5394622463046FFF73BFF814639463046FFF78EFE4F466D100CD0206808B10446ECE70E
:40378000224621463046FFF72AFF2060C0F80080F4E73846BDE8F883704C00002DE9F0470C460746914626694FEA621A56444968A368751CAB4202DA01315B00FAE7384615
:4037C000FFF730FE002380461A4600F11401534503DA41F823200133F9E72AEAEA73206901EB830319F01F0904F1140101EB800E14D0C9F1200C002208689A4600FA09F001
:40380000024343F8042B51F8042B8E4522FA0CF2F2D8CAF8042042B1B51C06E0043B51F8042B8E4543F8042FF9D8013D3846C8F810502146FFF72BFE4046BDE8F0870369E1
:403840000A6910B59B1A11D192001430143183180A4453F8044D52F8041D8C4202D007D3012010BD9842F4D3002010BD184610BD4FF0FF3010BD2DE9F8430C4607461146CB
:4038800020461546FFF7DBFF061E08D131463846FFF7C8FD012303614661BDE8F883BCBF23462C4638466168BABF1D4601260026FFF7B8FD2B69C660266905F1140904F1B9
:4038C000140101EB860709EB830800F114054FF0000C51F8042B59F8044B93B29C44A3B2240CC3EB0C03C4EB124202EB23429BB24FEA224CC84543EA02428E4645F8042BE0
:40390000E7D8BE450ED25EF8041B8AB26244131403EB114392B242EA03424FEA234C45F8042BEEE755F8043D0BB9013EFAE70661BDE8F8832DE9F3411C4601219046089E44
:40394000099DFFF76FFDC4F31302C4F30A5407460CB142F480120192B8F1000F19D002A840F8088DFFF705FE009B48B1019AC0F1200102FA01F10B43C2407B61019200E05A
:403980007B61019B002B14BF02210121BB61396107E001A8FFF7EDFD019B01217B613961203034B1A4F2334404443460C0F1350009E0A0F2324007EB810330601869FFF784
:4039C000B8FDC0EB41102860384602B0BDE8F08138B502FB01F4214600F054F8054618B122460021FEF7C9F9284638BD38B50546002944D051F8043C0C1F002BB8BFE41848
:403A000000F08CFE1E4A1368114613B96360146030E0A3420DD92268A018834201BF18685B681218226063600C6023E0A24203D813465A68002AF9D118681918A1420BD1CE
:403A40002168014458188242196013D110685268014419605A600DE002D90C232B6009E021686018824201BF106852680918216062605C602846BDE8384000F050BE38BD7D
:403A8000FC81FF1F70B5CD1C25F0030508350C2D38BF0C25002D064601DBA94202D90C23336046E000F03AFE234B1C681A462146A1B10B685B1B0ED40B2B03D90B60CC1840
:403AC000CD501EE08C420BBF63684B681360636018BF0C4615E00C464968E9E7174C23681BB9304600F082FC20602946304600F07DFC431C18D0C41C24F00304A0420DD1F8
:403B00002560304600F00BFE04F10B00231D20F00700C31A0ED05A42E25070BD211A304600F064FC0130EBD10C233360304600F0F6FD002070BD00BFFC81FF1FF881FF1F3D
:403B40002DE9F0478E6882469E420C46914698463ED88A8912F4906F3AD02568096902236F1A656905EB450595FBF3F57B1C43449D4238BF1D4653050FD52946FFF782FF75
:403B8000064698B13A462169FEF7ECF8A38923F4906343F08003A38113E02A4600F0C0FD064670B921695046FFF720FF0C23CAF80030A3894FF0FF3043F04003A381BDE8C9
:403BC000F08726613E44266046466561ED1BA560464528BF464649463246206800F083FDA36800209B1BA36023681E442660BDE8F08700002DE9F04F9DB003938B898046DE
:403C00001C060D4616460DD50B695BB94021FFF739FF2860286118B90C23C8F80030CDE040236B610023099320238DF82930DFF89CB130238DF82A3037463C4614F8013B60
:403C40001BB9B7EB060910D003E0252BF9D02746F3E74B46324629464046FFF771FF013000F0A780099B4B4409933B78002B00F0A08000234FF0FF3204930793059206933F
:403C80008DF853301A930126052221784E48FFF7BBFB671C049B38B14B4A3C46801A06FA00F018430490EFE7D90644BF20228DF853201A0744BF2B228DF8532022782A2A42
:403CC00003D0079A00210A200BE0039A111D12680391002A10DA524243F00200079204900BE027463B780134303B092B03D800FB02320121F5E701B107923B782E2B1ED10A
:403D00007B782A2B0AD1039B02371A1D1B680392002BB8BF4FF0FF33059310E0002319460593781C0A2407463A780130303A092A03D804FB01210123F5E703B1059103228B
:403D400039782248FFF760FB40B14023CBEB000003FA00F0049B013718430490397806221B487E1C8DF82810FFF74EFB88B1194B33B9039B073323F007030833039314E005
:403D800003AB00932A46144B04A94046FEF78EF807E003AB00932A460F4B04A94046FEF73FFBB0F1FF3F824603D0099B5344099342E7AB895B0601D4099801E04FF0FF301D
:403DC0001DB0BDE8F08F00BFA84C0000AE4C0000B24C0000AD1E0000413B00004B1C70B50E46144602D14FF0FF3070BD9389CDB223F020039381536B526883B1A36B9A42BD
:403E000007DA23685A1E226003F8016C636801331FE0214600F02EFC0028F2D0E3E72169236851B1994208D213F8011C8D4204D1013B0132236062600CE0E36304F14403C7
:403E400063630323A3632346226403F8466F236001236360284670BD10B50C46496B69B104F14403994201D0FFF7C0FD236C00206063636013B1E36B236010BD23694FF0CA
:403E8000FF30236000236360A38943F02003A38110BD00002DE9F04FDFF89C9207460D46CA46ADF5257D01930023469347939E4B0DF10C08A2939D4BDFF874B2CDF82081C4
:403EC000A3931478002C00F02781D9F8003023445B7803F0080303F0FF01F3B16B68002B10DD2B68DAF800001978014449780C0710D5479901330131479169682B600139D9
:403F00006960EBE7A39B2946384600929847009A0028E6D0561C3246D3E7252C02F1010652D14391459153782A2B02BF1023961C43930A2231783446A1F13003092B06F13B
:403F4000010605D8459B02FB0313303B4593F1E703227748FFF758FA40B134460123CBEB000003FA00F0439B03434393661C2478672C16D8652C7FD2472C07D8452C7BD266
:403F8000002C00F0CB80252C1ED077E05B2C51D002D8582C3ED071E0632C57D0642C3FD06CE0702C32D007D86E2C55D03AD8692C64D1002344933BE0752C31D0782C29D092
:403FC000732C5BD102233FE06B68002B0DDD2B681A78944240F0A08001336A682B60479B013A01336A60479395E7A39B2946384698470028EBD04698002800F08F80AB8957
:4040000013F0400F18BF4FF0FF3089E0439B43F020034393439B43F400734393102302E00A2300E008236E2C449301DD04230BE0032309E03146404600F0E8F90646439B63
:4040400043F040034393012349931BE0439B43F0400343930023F7E7439AD0063FF55BAF12F0010F019A479B02F104010191126814BF138013604EE70523E5E70323499346
:404080000A2344936B68002B03DD439B590611D518E0A39B2946384698470028F5D0AAE7479A013247926A68013A002A6A6013DD01332B602B68DAF800101A780A445278BF
:4040C0001207EDD4499B022B0DDC01AB2A4643A9384600F033F819E0A39B2946384698470028E7D087E7042B06DC01AB2A4643A9384600F089F809E00E4B002B3FF40BAF99
:4041000001AB2A4643A93846AFF30080012803D002287FF400AF6EE7469801E04FF0FF300DF5257DBDE8F08FDD3D0000593E0000AE4C0000000000007C81FF1F2DE9F8432E
:4041400015468A6880460C4632B98A69002A0CBF01224FF0FF328A602268DFF8A890D10658BF1A684FF000065EBF111D19601768A069F8B923680136DA065EBF2B681B785A
:404180003B702A686B6802F101022A60A26803F1FF3302F1FF326B6058BF0137A260E2B1002BE5DCD4F880312946404698470028DED012E0012806D12B681A7863699B5C7F
:4041C000002BD7D119E0022807D12B68D9F800201B7813445B781B07CCD5236813F0100305D1E2680132E260A26902B13B70236900201E442661BDE8F883002EEDD1BDE808
:40420000F88300BF7C81FF1F2DE9F04F0C469A46724B87B08346164693E8070003ABA76883E807006E4BA1696E4A04F11C09032918BF1A467B1EB3F5AE7F84BF40F25D138D
:40424000A360236888BF6FF4AE7543F4506323604B4600928CBF7F1900274FF000083168019303AB53F8280002220978FFF7CCF8019B002833D0B8F1010F0BD162682AB94C
:4042800008226260226842F400722260226822F4A0620CE0B8F1020F0AD1226802F4C061B1F5007F1BD11021616042F480722260A268511EA16092B132685D1C511C31601F
:4042C00012781A707368013B002B736006DCD4F88031314658469847002841D12B4608F10108B8F1030FBAD162680AB90A22626062683D496069891A019300F087F8019B79
:404300004FF000081D46A36863B3316860690A78805C38B3302A226808D1100506D508F1010857B10133013FA36006E022F4106222600B78013505F8013C7368013B002BB4
:40434000736003DD33680133336005E0D4F8803131465846984728B9A368013BA360D2E74FF000082368D9050CD54D4508D915F8011C6F1ED4F87C313246584698473D4642
:404380004D4527D0226812F010021BD12A70636849465846009EB0472268DAF8003012F0200F07D1D20705D51A1DCAF800201B68188004E01A1DCAF800201B681860E36804
:4043C0000133E3602369C9EB050545441D442561002000E0012007B0BDE8F08FBC4C0000794500006D440000D84C000038B5064C0023054608462360FCF77CFA431C02D1DC
:40440000236803B12B6038BD4883FF1F70B50B78441E5E2B13BF4A1C8A1C4B78002108BF012100F1FF0504F8011FAC42FBD10BB9501E70BD81F001041146C4540D784A1C9C
:404440002D2D06D05D2D0FD00DB12B46F4E7084670BD4E785D2EF8D0B342F6DC023101339E42C454FBDCE9E7104670BD2DE9F0470F4680463F48D0F800903D4615F8014B92
:4044800009EB0400407800F0080000F0FF0608B12F46F2E72D2C03D1BD1C7C78012603E02B2C04BF7C78BD1C13B1102B0AD15BE0302C57D1287800F0DF0058284DD16C78E3
:4044C00010230235002E14BF4FF0004C6FF0004CBCFBF3FA0027384603FB1ACC09EB040E9EF801E01EF0040F01D0303C0BE01EF0030E1BD0BEF1010F0CBF4FF0370E4FF0D1
:40450000570ECEEB0404A34210DDB7F1FF3F0AD0504506D801D1644503DC03FB0040012701E04FF0FF3715F8014BD7E77B1C0CD1002E4FF0220314BF4FF000406FF000402C
:40454000C8F800302AB9BDE8F08706B1404272B107B1691E1160BDE8F0873024002BB1D10823AFE70A23ADE7302CA3D0AAE7BDE8F08700BF7C81FF1F2DE9F0470E468046E4
:404580003B48D0F80090354615F8014B09EB0400407800F0080000F0FF0708B12E46F2E72D2C03D1B51C7478012703E02B2C04BF7478B51C13B1102B0AD153E0302C4FD153
:4045C000287800F0DF00582845D16C78102302354FF0FF3CBCFBF3FC03FB0CFA00266FEA0A0A304609EB040E9EF801E01EF0040F01D0303C0BE01EF0030E1AD0BEF1010FAD
:404600000CBF4FF0370E4FF0570ECEEB0404A3420FDD002E08DB604506D801D1544503DC03FB0040012601E04FF0FF3615F8014BD8E7002E07DA2223C8F800304FF0FF3093
:404640002AB9BDE8F08707B1404272B106B1691E1160BDE8F0873024002BB9D10823B7E70A23B5E7302CABD0B2E7BDE8F08700BF7C81FF1F2DE9F0410C46496B04F1440389
:4046800099421AD14FF48061FFF7FCF918B94FF0FF30BDE8F0814FF48063A36394F84630606380F8FF3394F8453000F2FD30437094F844300370206012E0A66B77003A4675
:4046C00000F02EF805460028E1D000EB0608014632464046FDF746FBC4F800806563A7630020BDE8F081884210B501EB020301D8421E0BE09842FBD28118D21AD34204D010
:4047000013F8014D01F8014DF8E710BD994204D011F8014B02F8014FF8E710BD70477047F8B5074615460E4621B91146BDE8F840FFF7A8B91AB9FFF759F92846F8BD00F089
:4047400015F885420ED929463846FFF79BF9044650B131462A46FDF705FB31463846FFF745F901E03046F8BD2046F8BD51F8040C0028BEBF091851F8043CC018043870471E
:404780004FEA410C7FEA6C5C02D150EA013C0AD14FEA430C7FEA6C5C02D152EA033C02D14FF0000070474FF001007047000000005374617274696E672070726F6772616DF2
:4047C0002E2E2E0D0A000000466C61672076616C75653A2025640D0A0000000054696D657220747269676765726564202D206D6561737572696E672064697374616E6365E6
:404800002E2E2E0D0A00000044697374616E63653A20252E326620636D0D0A004F62737461636C652064657465637465640D0A004E6F206F62737461636C652064657465CE
:40484000637465640D0A000053746F70200D0A005B425420526573706F6E73655D2025730D0A000025632C25642C25642C25640050617273696E672073756363657373661E
:40488000756C202D2073656E64696E672041434B20746F205250490D0A00000041434B58000000005370656564207375636365737366756C6C79207365740D0A00000000CE
:4048C00054757272657420646972656374696F6E20616E642073686F6F74206D6F6465207375636365737366756C6C79207365740D0A000041542B005B425420496E666FC7
:404900005D20415420436F6D6D616E64206F7220726573706F6E73652072656365697665643A2025730D0A0050617273696E67206572726F72202D2073656E64696E6720F3
:404940004E41434B20746F205250490D0A0000004E41434B58000000496E6372656173652073706565640D0A000000004D617820666F7277617264207370656564207265AB
:4049800061636865640D0A00416C7265616479206174206D617820666F72776172642073706565640D0A000044656372656173652073706565640D0A000000004D617820C7
:4049C0007265766572736520737065656420726561636865640D0A00416C7265616479206174206D617820726576657273652073706565640D0A00004665746368696E67DE
:404A0000204D41432061646472657373206F6620426C7565746F6F7468206D6F64756C650D0A00004665637468696E67205541525420696E666F2066726F6D20426C75652B
:404A4000746F6F7468206D6F64756C650D0A000054657374696E6720666F7220726573706F6E73652066726F6D204254206D6F64756C650D0A00000041540D0A0000000084
:404A800041542B414444523F0D0A000041542B554152543F0D0A0000436F756E74657220696E697469616C697365640D0A00000054696D657220696E697469616C697A657A
:404AC000642E0D0A0000000025642E25303264636D0D0A0031333A33313A3033000000004D617920203620323032350048432D53523034205465737420435938434B4954BF
:404B00002D30353920282573202573290D0A0000004F00400C00405100403000F0510040100000000140800C000D0140000300140140000800400140000A004C0140000210
:404B4000005001402000000060520040700900480600800C01407809004880004300494E4600696E66004E414E006E616E003031323334353637383941424344454600306C
:404B800031323334353637383961626364656600496E66696E697479004E614E00504F534958002E00000000000000000000F03F000000000000244000000000000059408F
:404BC0000000000000408F40000000000088C34000000000006AF8400000000080842E4100000000D01263410000000084D797410000000065CDCD41000000205FA00242AA
:404C0000000000E876483742000000A2941A6D42000040E59C30A2420000901EC4BCD64200003426F56B0C430080E03779C3414300A0D8855734764300C84E676DC1AB4301
:404C4000003D9160E458E143408CB5781DAF154450EFE2D6E41A4B4492D54D06CFF08044F64AE1C7022DB544B49DD9794378EA4405000000190000007D0000000000000090
:404C80000080E03779C34143176E05B5B5B89346F5F93FE9034F384D321D30F94877825A3CBF737FDD4F1575232D302B2000686C4C0065666745464700000000DA4C000060
:404CC000DD4C0000E04C0000412D46612D66383930313233343536375D002B2D0030300078580000202020202020202020282828282820202020202020202020202020201D
:404D00002020202088101010101010101010101010101010040404040404040404041010101010101041414141414101010101010101010101010101010101010101011039
:404D400010101010104242424242420202020202020202020202020202020202020202101010102000000000000000000000000000000000000000000000000000000000CF
:404D800000000000000000000000000000000000000000000000000000000000000000000000000000000000000000000000000000000000000000000000000000000000F3
:404DC00000000000000000000000000000000000000000000000000000000000000000000000000000000000000000000000000000000000000000000000000000000000B3
:404E00000000000000000000000000000000000000000000000000000000000000000000000000000000000000000000000000000000000000000000000000000000000072
:404E400000000000F8B500BFF8BC08BC9E4670474D00000071090000F8B500BFF8BC08BC9E46704729000000784E0000C880FF1FB8000000D0010000000000005083FF1F9E
:404E80000000E02EC05D00001800000000366E0100000000E44D0000044E0000244E0000000000000000000000000000000000005C4B00000000000000000000000000006E
:404EC000000000000000000000000000000000000000000000000000000000000000000000000000000000000000000000000000E080FF1FA34B0000AD4C0000AD4C000054
:404F0000AD4C0000AD4C0000AD4C0000AD4C0000AD4C0000AD4C0000AD4C0000FFFFFFFFFFFFFFFFFFFFFFFFFFFF0000E34C00000000000000000000000000000000000081
:404F40000000000000000000000000000000000000000000000000000000000000000000000000000000000000000000000000000000000000000000000000000000000031
:404F800000000000000000000000000000000000000000000000000000000000000000000000000000000000000000000000000000000000000000000000000000000000F1
:404FC00000000000000000000000000000000000000000000000000000000000000000000000000000000000000000000000000000000000000000000000000000000000B1
:405000000000000000000000000000000000000000000000000000000000000000000000000000000000000000000000000000000000000000000000000000000000000070
:020000040003F7
:0200000480007A
:40000000024F004005520040076400400265004003010140640201403903014051040140510501405A06014051070140040801400E0901404E0A01403B0B0140210C014043
:40004000370D0140020F0140501401403D1501405B1601404517014007190140031B0140084001400C4101400942014003430140024501400246014003470140084901400A
:40008000064C0140084D0140075001400251014001500A1B0401083009101810190883388472850F86388A0F8B0F8D77840F86728E01E220E640001002400410058006ACBD
:4000C0000713080C0A710C090ED00F0C152C1620174318141E0324DC25712622270E29712B062F0831C034E0350F361F373039823A203B203F404063410246CE470B481C72
:4001000049FF4AFF4BFF4EF04F44500C580459045A045C225D025F0166C06A406B0281278318872389088D1C8F22913F9518960299049C019D10A340A740A91CAB21AF0444
:40014000B002B11FB338B601B740BB0ABE40BF40C004C604C9FFCA07CBFFCC40CD20CEF0CF05D008D418D604D804D904DA04DB04DC22DD22DF01E040E1A8E240E320044023
:40018000050406C8080809010A010B400E210F0817041A021B021D201E091F202020228023402440270529092A202B022D102E882F28315A3704382A3B403C603D0C3E200D
:4001C0003F04430145244A104B044D1052405540571459026084628080809E01C0F0C2E5C420CA7FCC4FCE5FD061D220D601D80D04C3081F0AE00CF30E0C10FF14411AE3BA
:400200001C08203C22C32404280C2C8230C0322C3410360F3A803E105602571258045B045C025D205F0183108413860C880A8A148E088F08930C9403950C961497339813AA
:4002400099319A049B06A131A30EA615A940AB13B010B20FB30FB510B760B980BA08BB08BE01BF10C036C104C5CBC70EC813C9FFCAFFCBFFCEF0CF44D00CD401D604D80497
:40028000D904DA04DB04DC12DD21DF01E6C0EA40EB02003001800210044005040704080809020A050E180F2011021202132415041802198A1A081D041E401F0826282712FE
:4002C0002C482F403420360837023C803F02446245404C084F0A540456085A085C025E505F08650866016710682069106A80701071487201732488048A028E089040910464
:400300009340942E98089B049D4F9E01A010A141A204A310A50AA708A808A910AE01C0E7C26FC42FCAA0CCE0CE90D0C0D220D6F2D880E28001020305053706030A200B082D
:400340000C0C0D400E711111132218141C101D241E401F12200922D02308241026AC28DC29372A223107321F3308354036E037303A803F1454185604580459045B045C1110
:400380005D105F018401860E8B018C448E318F019080910194229651A4E7A8E7AD01B060B207B480B501B618B920BB02BE40C052C104C206C401C5C0C7E0C822C9FFCAFF85
:4003C000CBFFCC62CDA0CEF0CF41D00CD804D904DA04DC22DD02DF01E640E702E910EA30EB10ED10EE10EF120040010802120544060408080A800F09102011101420171271
:40040000184819081A041B801C021D441F40212225012688270829802E012F083004310A3401368038103B403D8A3F2041024204438049814B1053015E0264046642901037
:40044000911092809350940C96049780982899A09B129D019E129F08A020A140A304A448A502A602A820A920AF02B220B301B608C0E5C2CCC476CAA8CC91CEFCD00DD20C30
:40048000D680D8B0E610EC02EE0539203F1059045F0125108D1099049F04A510A701AB09AD04B0A0B222B601E610E8A0EC40090311011208160218041E02230426052F04B8
:4004C00030043102320233043401360837013F444010410545D14652480F49FF4AFF4BFF4DA04F04501852805407580459045A045B045C035D335F01604062C064406540E1
:4005000066C068C06AC06CC06EC08A158C2A8D088E0490339104920C9B019C339E04A301A608A706AC03AE04B00FB101B230B304B508B702B808BA02BE04BF10D401D804CC
:40054000D904DB04DC31DD10DF01060107040A450B200E800F0210201504160219441A851E801F092182220424042501271229402B802E012F103102361037023A203F403A
:400580004201482049014A104B8053D059015A885B105CA45E026D40724081018B408E0195409E20A590A910AA80C0C0C29FC4A4CAC9CCA1CE14D008D208D6FFE030E4016A
:4005C000030112021E0128013301340236013E4040564102420149FF4AFF4BFF4DA04F015018580459045A045F016040628064406540668068406A506BA86C406D206E504C
:400600006FA80142032009020A120C020F0110021720180419821A101B501D401F20225527202A202B203251380239403F01400441804280459049804A104B014FA05003B1
:4006400051085210582059405A085C205E20618862106340710279409740C00DC29DC441CA06CC0DCE89D03DD238D60ED80FDE088B40E220000106050B020D081301170C26
:400680001B062A0230023104330234013501360437083F044020410645D546204701481B49FF4AFF4BFF4DA04F04501852805407580459045A045B045C445D445F016040F1
:4006C00062C06440654066C068C06AC06CC06EC0801C8261866388678A188C7F8F02902491019280941C96629A049B019C409F02A010A408A501A818AC60AF01B101B21F70
:40070000B302B480B660B902BA08BF04D804D904DC11DF010220038004080511068007010C410E2412081602172A184019201B801E26200422542340250827402C102E80C2
:40074000310232183610374138403B203F80400449024A204B205208531059225A88710288018B4090089620985099119A029B2B9C01A340A508A631AA40C0FCC2F0C4F213
:40078000CA50CCB7CE1CD004D204D60FE220001F02600302050406630C7F0D041001145C162318731A0C1C021F0120082404280C29042C032F01302C32103303340F350484
:4007C000364C3A223B803E043F04403641044205440246CE480C49FF4AFF4BFF4C624DA04EF04F41500C56025711580459045A045B045C115D115F016640670269106A30F8
:400800006B106D106E106F12950196029A019E01A602B002B401B501BE10BF10C006C540C9FFCA07CBFFCC40CD20CEF0CF05D008D804D904DA04DC04DD01DF01E040E1A888
:40084000E240E32004080501070109200A200B020C510E2412201602172A18041A801C101D111E052304240827112C012F083104344036803D0A3E424410471148404920DA
:400880004B014C044E015008520457505A035C106D086E406F08772A87048C08930294049601970199249C019E04A121A280A448A50CA601A718AE48B001C0B0C2F7C4F40E
:4008C000CA30CC12CED0D0E0D234D620E0028F0499049F04B301E002E410E880A904E620EC0131803308371838108B088F10CCF0CE100380332053108010818094109F082B
:40090000A580C010CC10D420E68013088B209F08A720AB80AF10C410EC20EE4061028D02D8400B10C20882019310A201B310EE015B405F028B029B40AB40D480D680EE808F
:400940005E0266088780A201D601D8011020778088209B80AA08C408DE04E604000F08040A060C0B0E0110121A1200BF010F000080800000400000000800028004000000DF
:4009800000000000076F00100000080108000000000000140002184800000000008000000001002E0100040006071080011808602000002000005004520401000042C00E5D
:4009C0003BFFFFFF00AF0701180080001700040004040404000000054000800040408000400050A8402050A8000000000000000000000000000000000200010202000200E7
:400A00000000000080004080800080000000000000FBFB003000000010080800000000000018180018000000000000000000000000000000000000000000000000000000E8
:400A40000000000000000000000000000000000000000000000000000000000000000000000000000000000000000000000000000000000000000000000000000000000076
:400A80000000000000000000000000000000000000000000000000000000000000000000000000000000000000000000000000000000000000000000000000000000000036
:400AC00000000000000000000000000000000000000000000000000000000000000000000000000000000000000000000000000000000000000000000000000000000000F6
:400B000000000000000000000000000000000000000000000000000000000000000000000000000000000000000000000000000000000000000000000000000000000000B5
:0200000490006A
:0400000000004005B7
:0200000490105A
:04000000BC90ACAF55
:0200000490303A
:02000000158E5B
:0200000490402A
:4000000000000000000000000000000000000000000000000000000000000000000000000000000000000000000000000000000000000000000000000000000000000000C0
:400040000000000000000000000000000000000000000000000000000000000000000000000000000000000000000000000000000000000000000000000000000000000080
:400080000000000000000000000000000000000000000000000000000000000000000000000000000000000000000000000000000000000000000000000000000000000040
:4000C0000000000000000000000000000000000000000000000000000000000000000000000000000000000000000000000000000000000000000000000000000000000000
:0200000490501A
:0C00000000012E16106900012E3725F7B4
:00000001FF